:100000000C9434000C9451000C9451000C94510049
:100010000C9451000C9451000C9451000C9451001C
:100020000C9451000C9451000C9451000C94AB02B0
:100030000C9451000C9418030C9451000C94510032
:100040000C9451000C9451000C947C020C945100BF
:100050000C9451000C9451000C9451000C945100DC
:100060000C9451000C94510011241FBECFEFD8E026
:10007000DEBFCDBF11E0A0E0B1E0E8E3FAE002C0EE
:1000800005900D92A033B107D9F722E0A0E3B1E0CB
:1000900001C01D92AB3BB207E1F70E943C030C94F8
:1000A0001A050C9400002A9A089520E137E29091F5
:1000B000C00095FD03C021503109C9F78093C600E7
:1000C0000895CF93DF93EC018991882319F00E9462
:1000D0005500FACFDF91CF910895CF93DF93EC01D4
:1000E00080E20E94550080E30E94550088E70E944C
:1000F000550080E30E94550080E30E945500FE01F8
:1001000084E0F695E7958A95E1F7ED5FFE4F8081F3
:100110000E945500CF70DD27CD5FDE4F8881DF91D3
:10012000CF910C945500E0913902AAE3B2E09C9182
:1001300021E0290F2C93E90FF0E0E75CFE4F80836C
:100140000895F999FECF92BD81BDF89A80B50895C2
:100150008EBD8FEF81500DB407FC02C08111FACF24
:100160008EB508952A9808951F93CF93DF93182F83
:10017000EB010E94B200812F80620E94A80088815A
:100180000E94A80089810E94A8008A810E94A8007C
:10019000DF91CF911F910C945300CF93DF93D82F11
:1001A000C62F0E94B2008D2F80620E94A8008C2F63
:1001B0000E94A800DF91CF910C9453008091B70268
:1001C000811136C081E080936F008093B602E09188
:1001D0000201EF3F69F187E0E89FF0011124EA5B3B
:1001E000FD4F80819181A281B381209144023091A1
:1001F0004502BD01621B730B16161706CCF09C015D
:100200004091840050918500672B39F48C3391051F
:1002100020F0CC978417950718F49A01245C3F4F7F
:100220003093890020938800B19A83E080936F0017
:1002300008950F931F938091440290914502019677
:10024000909345028093440280914402909145022C
:10025000B0E0A0E0DC0199278827009140021091CE
:1002600041022091420230914302B901A8015C5D34
:100270006B407F4F84179507A607B70728F48017B0
:100280009107A207B307D8F440934002509341026C
:10029000609342027093430280913C0290913D0230
:1002A000A0913E02B0913F020196A11DB11D809325
:1002B0003C0290933D02A0933E02B0933F021F91F7
:1002C0000F910C94DE000F931F93B09B07C00FB6E5
:1002D00007FC04C0B09A0E941901F7CF8FB7F894B9
:1002E0000091840010918500609144027091450254
:1002F000B09B04C017FD02C06F5F7F4F8FBF90E0BF
:1003000080E0CB017727662730E020E0602B712B5F
:10031000822B932B1F910F910895CF92DF92EF9232
:10032000FF92CF93DF93EC010E9463016B017C018C
:100330009E01A0E8BEE30E940205C60ED71EE81E7D
:10034000F91E0E9463016C157D058E059F05C8F39B
:10035000DF91CF91FF90EF90DF90CF9008950F93B2
:100360001F938823A9F00E9463010091300110912E
:1003700031012091320130913301601B710B820BEE
:10038000930B613A71058105910568F3289A14C0B1
:100390000E946301009130011091310120913201DE
:1003A00030913301601B710B820B930B61387C40E1
:1003B0008105910568F328980E94630160933001DC
:1003C0007093310180933201909333011F910F910B
:1003D00008956FE780E00E94CD0062E082E00E9415
:1003E000CD0081E00E94AF0181E08093BA020895C0
:1003F0000F931F93CF93DF930E94B2008FEF0E9461
:10040000A800C82F0E94530080E00E94AF0100E1C5
:1004100017E2DC2FD072C5FF02C0C0FF1BC0C4FDB5
:1004200019C001501109B1F085E190E0019749F040
:100430000000000000000000000000000000A8957F
:10044000F5CF0E94B2008FEF0E94A800C82F0E9433
:100450005300DFCF60E387E00E94CD008091BA02B5
:10046000882321F01092BA020E94E90181E090E015
:10047000DD2311F090E080E0919581959109DF9165
:10048000CF911F910F910895FF920F931F93CF93D8
:10049000DF93F82E092F162F8091BA02882331F0AE
:1004A00080E00E94AF0181E08093BA026EE780E0B5
:1004B0000E94CD0061E082E00E94CD000E94B20067
:1004C00081EE0E94A8000E9453000E94B20080EAC0
:1004D0000E94A800CF2DD02F115020F089910E94AA
:1004E000A800FACF0E94530081E0DF91CF911F91C5
:1004F0000F91FF900C94AF011F920F920FB60F92C5
:1005000011242F933F934F935F936F937F938F9318
:100510009F93AF93BF93EF93FF939091C00080910F
:10052000C600947139F4E091B802F091B9023097A5
:1005300009F00995FF91EF91BF91AF919F918F9134
:100540007F916F915F914F913F912F910F900FBECF
:100550000F901F9018951F920F920FB60F921124B3
:10056000CF92DF92EF92FF920F931F932F933F93BF
:100570004F935F936F937F938F939F93AF93BF93AB
:10058000CF93EF93FF9381E080936F00C7E0A0913A
:100590000201CA9FD0011124AA5BBD4F1496ED91B0
:1005A000FC91159715961C921E92149716968C9195
:1005B000809302011092B60278940995F8940E94F3
:1005C0006301E0910201EF3F99F0CE9FF001112409
:1005D000EA5BFD4F0081118122813381680179013D
:1005E000C61AD70AE80AF90AD701C601B7FDCFCF64
:1005F0001092B7028091B602811102C00E94DE0003
:10060000FF91EF91CF91BF91AF919F918F917F918A
:100610006F915F914F913F912F911F910F91FF909B
:10062000EF90DF90CF900F900FBE0F901F90189516
:100630001F920F920FB60F9211242F933F934F9357
:100640005F936F937F938F939F93AF93BF93EF933A
:10065000FF930E941901FF91EF91BF91AF919F917C
:100660008F917F916F915F914F913F912F910F905B
:100670000FBE0F901F901895CF93DF93CDB7DEB7C5
:10068000A5970FB6F894DEBF0FBECDBFAFB6B5B617
:100690000FB6F894A89580916000886180936000FF
:1006A000109260000FBE1092C50080E18093C400DC
:1006B00082E08093C00088E98093C10086E0809347
:1006C000C2001092800081E08093810080936F00CF
:1006D00094B19C6294B92498229A1CBC90E59CBD6C
:1006E0008DBD8DB58EB5209A229A80E00E94AF0113
:1006F0000E94530085E090E00E948D016FE784E046
:100700000E94CD000E94B20084E00E94A80080E018
:100710000E94A800182F0E9453001F37E1F466E2E0
:1007200086E00E94CD0063E08CE10E94CD0064E091
:100730008DE10E94CD0060E787E00E94CD006AE273
:1007400085E00E94CD0061E083E00E94CD0063E07F
:1007500081E00E94CD007894CE0101967C0110E0EA
:1007600000E06C01C8010E94A100F70181937F01A4
:100770000F5F1F4F06301105A9F7B6018BE00E94ED
:10078000B400BE016C5F7F4F80E10E94B400BE01E7
:100790006C5F7F4F8AE00E94B40083E191E00E9489
:1007A00061008A2D90E00E946D0089E191E00E9435
:1007B00061008B2D90E00E946D0082E291E00E942A
:1007C000610089810E9455008A810E9455008B81B9
:1007D0000E9455008DE00E9455008AE00E9455005D
:1007E0008091BA02811102C00E94E90183E990E080
:1007F0009093B9028093B80201E099249A9490E210
:10080000892E0E94B20087E10E94A80080E00E9429
:10081000A800182F0E94530010FD42C00E946301DF
:1008200060933401709335018093360190933701C2
:1008300060E487E00E94CD000E94B20080E60E9442
:10084000A80080E00E94A800B82E0E9453000E94D9
:10085000B20081E60E94A80076011B2D115038F0ED
:1008600080E00E94A800F70181937F01F7CF0E94EA
:100870005300898190910101891781F080930101D2
:100880007E01F2E0EF0EF11C11E01B1538F4F701C8
:1008900081917F010E9455001F5FF7CF10923B02AC
:1008A00080913A02882309F4ACCF8091380191E01D
:1008B000980F9093380189830E946301409034011E
:1008C00050903501609036017090370164197509B8
:1008D0008609970961307442844F910510F00093A6
:1008E000000180910001882329F19DA261E0CE01E1
:1008F00085960E9444020E94F80184E690E00E94DE
:100900008D0190E080E00E94A10089A381E090E049
:100910000E94A1008AA382E090E00E94A1008BA324
:100920008CA264E0CE0181960E9444020E94F801EC
:10093000109200010E9463016093340170933501AD
:10094000809336019093370180913B028F5F8093B3
:100950003B02F89480913A02182F803208F01FE190
:10096000789490913B02923009F045C08F3108F0A5
:1009700047C06091390270E07B01E094F094FF245D
:10098000A12EB12CC70101967C01A816B90608F466
:100990007501675C7E4FA701CE0102960E9411058A
:1009A000C7010196A5014E195F0969E371E08C0D3D
:1009B0009D1D0E941105F89480913A02811B80933D
:1009C0003A0280913902810F80933902789480E84D
:1009D000F82E1F5FFA94FF2009F413CF84E090E013
:1009E0000E948D01612FC6010E9444020E94F801FD
:1009F000892B81F706CF933009F0BBCF11E0B9CF37
:100A00001DE1B7CFA29FB001B39FC001A39F700D9E
:100A1000811D1124911DB29F700D811D1124911D06
:100A20000895FB01DC0102C001900D92415050403D
:080A3000D8F70895F894FFCFF8
:100A380001FFFF303132333435363738396162637C
:100A4800646566535245473A002C204D435543523E
:100A58003A002C206F757220616464723A2000009D
:00000001FF
