:100000003CC000009BC5000099C5000097C50000DA
:1000100095C5000093C5000091C500008FC5000084
:100020008DC500008BC5000089C5000087C5000094
:1000300085C5000083C5000081C500007FC50000A4
:100040007DC500007BC5000079C5000077C50000B4
:1000500075C5000073C5000071C500006FC50000C4
:100060006DC500006BC500000100010380010301A4
:100070000D000C2C010D022A800011241FBECFEFB1
:10008000D8E0DEBFCDBFE8E6F0E040E017C0B591B4
:10009000A59135912591059107FD0CC0959185910C
:1000A000EF01F92FE82F05900D92A217B307D9F7AA
:1000B000FE0104C01D92A217B307E1F7E937F40768
:0A00C00031F703D000C0F894FFCF21
:1000CA00CF93DF93CDB7DEB72F970FB6F894DEBF85
:1000DA000FBECDBF98D161E87BE080E0E3D068E84D
:1000EA007BE080E0DFD084B18E6284B980E58CBD8C
:1000FA0035D167E082E0FCD06FE97BE080E0D2D0C6
:10010A0069EB7BE080E0CED07894F12CD12C00E032
:10011A00E12C8EE0882E81E0982ECE0101965C01BA
:10012A0098E0C92E250190E8692E20EF722ED2D0D0
:10013A00182FD7D01A3241F11B3280F51D3009F43D
:10014A0053C0143209F05FC0F5018C2D11928A95C3
:10015A00E9F7C0D0182FC5D01A3209F45EC008F0EA
:10016A0062C01D3009F43CC0143271F300E0E12C86
:10017A00F501EE0DF11D1083E394FF24F394AAD048
:10018A00182FAFD01A32C1F6F11049C0AE01475F3D
:10019A005F4F6D2D8EE091E0F2D0C9CF123459F144
:1001AA00123649F11C3279F5023009F464C008F4B8
:1001BA004CC0043009F456C008F466C0053009F092
:1001CA006CC0862DB2016BD0682FCE01099627D15B
:1001DA0006E0F5018C2D11928A95E9F7E12CA7CF5B
:1001EA00FF24F39400E0E12C65EE7BE080E05AD036
:1001FA009ECF00E0E12CF401872D11928A95E9F750
:10020A00F12CD12C94CFF110B3CFED2DF0E0E25FB9
:10021A00FE4F10531083D3948ACF00E0E12CCE0115
:10022A00099600D1AACF123421F3123611F31C32E7
:10023A0009F09CCFFF24F394862DB20130D0682FA9
:10024A00CE01099618D101E0C4CF0023A9F30130E9
:10025A0021F5862DB20123D0682FCE0109960ED141
:10026A0002E0B7CF862DB2011AD0BC01CE010996A1
:10027A0008D105E0AECF862DB20111D0682FCE018C
:10028A00099603D103E0A5CF862DB20108D0682FC5
:0E029A00CE010996FDD004E09CCF0F5F9ACFF5
:0602A800FBD0CB0108951C
:1002AE009B01482FF901949147FD9081992379F094
:1002BE002F5F3F4F4F4F8091C00085FFFCCF909333
:1002CE00C600F901949147FD90819111F1CF0895E7
:0E02DE008091C00087FFFCCF8091C60008957C
:0E02EC009091C00095FFFCCF8093C60008954E
:1002FA00CF93DF93C82FD62F68EE7BE080E0D2DF62
:10030A00D09300016C2F85E0CBD060E081E1C8D0AA
:10031A006091000182E1C4D060E083E1C1D060E075
:10032A0084E1BED060E085E1BBD060E086E1B8D070
:10033A006EE086E0B5D068E080E0B2D060E081E0AF
:10034A00AFD063E082E0ACD060E08CE1A9D0B8D055
:0C035A0066E07CE080E0DF91CF91A4CF52
:100366006DE07CE080E0A0DF209A83E091E0C3D0DE
:1003760088E091E0B8D02898BCD066E07CE080E0C8
:0203860093CF13
:10038800EF92FF920F931F93CF937C01C62F8A01A0
:100398006CE67BE080E087DF6C2FC701B8D087E090
:1003A800E3E2F2E0DF011D928A95E9F7F801808126
:1003B800809323028FEF80932402C09325024091FB
:1003C8000D0150E0440F551F443051058CF083E077
:1003D80090E023E0FC01ED5DFD4FDC01A550BE4F30
:1003E8008C9180832F5F822F90E08417950794F378
:1003F80083E292E0E1D011D18111FDCFCF911F911D
:080408000F91FF90EF900895A1
:100410001092C50087E68093C40086E08093C200F6
:0804200088E18093C1000895FA
:06042800FC01668308954B
:10042E00CF93DF93EC016EE37BE080E039DFCE010A
:10043E0034D183E292E0BDD0EDD08111FDCFF1D069
:10044E008823E9F364E57BE080E02ADF8CE192E02B
:10045E0002D190911C02809123029813F0CF8091CB
:10046E001D02813461F764E67BE080E0DF91CF917D
:02047E0017CF96
:06048000FC0160830895F9
:06048600FC0161830895F2
:08048C00FC01758364830895EF
:06049400FC0162830895E3
:06049A00FC0163830895DC
:0A04A0002AE030E040E050E025C102
:1004AA002A988F7180629DB58EBD0DB407FEFDCF6F
:1004BA008EB58DB56EBD0DB407FEFDCF8EB517C0D6
:1004CA002A988DB582EE8EBD0DB407FEFDCF8EB58E
:1004DA000ED060E787E0E4DF28986BE080E0E0DF99
:0204EA006FC2DF
:0C04EC00289845E0BC018BE06CD269C28E
:0404F8002A9A08959F
:1004FC00CF93DF93EC0145E0BC018AE062D245E08A
:0A050C00BE0180E1DF91CF915CC2D7
:10051600662309F451C0DC0120E090E045E28D91AC
:10052600220F282B949F312D1124892F831B86950A
:10053600830F86958695382F330F330F330F381B6D
:10054600931310C0992371F0E92FE695E695E69589
:10055600F0E0E250FE4F208380910D018F5F809383
:100566000D0120E09F5F6913DACF85E2689F912D28
:100576001124862F891B8695890F86958695982F37
:10058600990F990F990F981B6917B1F0E62FE69509
:10059600E695E695F0E0E250FE4F677088E090E061
:1005A600861B910901C0220F8A95EAF72083809164
:0A05B6000D018F5F80930D01089581
:1005C000CF93DF93D82FC92F28981FD22A988DB5A3
:1005D00081EE8EBD0DB407FEFDCF8EB58DDF2A985E
:1005E0008DB580EA8EBD0DB407FEFDCF8EB520918E
:1005F0000001222391F0ED2FFC2F215030E02F5FDE
:100600003F4F2E0F3F1F81919DB58EBD0DB407FE4C
:10061000FDCF8EB5E217F307B1F76EDFDF91CF9113
:02062000D4C143
:0E062200F9D1982F907381E009F080E00895DF
:10063000CF93DF931F92CDB7DEB7EDD186FF05C014
:1006400081E00F90DF91CF91089541E0BE016F5F8F
:100650007F4F87E1EDD18981809581700F90DF9187
:04066000CF91089599
:100664002A982DB521E62EBD0DB407FEFDCF2EB57B
:1006740020910001222391F0FC01215030E02F5FF2
:100684003F4F280F391F80819DB58EBD0DB407FEE5
:10069400FDCF8EB58193E217F307A9F72BDF60E452
:0406A40087E001CF1B
:1006A8000F931F93CF93DF938C01C3E2D2E087E0CF
:1006B800FE0111928A95E9F7C801E4D18883C8013F
:1006C800DBD18983C801D2D18A83C801D2D18B8377
:1006D800C801C8D18C83C801C5D19D83C801CFD1B9
:0C06E8008E83DF91CF911F910F91089538
:1006F4002F923F924F925F926F927F928F92AF921E
:10070400BF92CF92DF92EF920F931F93CF93DF9319
:1007140000D000D000D0CDB7DEB73B01882E5A01FF
:1007240019014115510521F0FA0160837183828317
:100734002114310429F0C1010297839708F017C1ED
:10074400E82C6301FFEFCF1ADF0AEF0AF3011491DB
:1007540087FC1081812F90E0CBD14C2D3D2D2E2D87
:10076400892B19F036018E2CEBCF1D3269F4E82C5D
:10077400630152E0C50ED11CE11CE42FF32F149148
:1007840027FD108101E00EC01B3259F4E82C6301EF
:1007940082E0C80ED11CE11CE42FF32F149127FD35
:1007A400108100E02114310409F190E1291631048B
:1007B40029F43EC010E32114310421F1F8E02F168E
:1007C400310401F154F432E02316310421F5412CB3
:1007D400512C612C50E4752E4AC04AE02416310491
:1007E40039F050E125163104B1F43CC0103311F155
:1007F4003AE0232E312C4CEC442E542C642C4CE047
:10080400742E35C098E0292E312C412C512C612CAA
:1008140020E1722E2CC060E070E080E090E891014D
:10082400032C000C440B550B32D129013A011FC093
:100834001033C1F4F6018491E7FC80818F7D883503
:1008440009F0B8CFAE2DC6010196A11DFC0114918B
:10085400A7FD1081E2E0CE0ED11CE11C026060E134
:10086400262E312C412C512C612C88E0782EA0E0CE
:1008740060E070E0CB019101032C000C440B550B9C
:1008840029833A834B835C83E0EDE10FEA3060F027
:100894002FEB210F2A3110F4E9EC05C02FE9210FC9
:1008A4002A3148F5E9EAE10F2E2F30E0221533050D
:1008B40014F5A7FD17C0461657066806790678F0A2
:1008C40029813A814B815C8104D16E0F711D811D98
:1008D400911D61307105810530E8930710F0AFEF89
:1008E40001C0A1E0F6011491E7FC10814FEFC41A96
:1008F400D40AE40AC9CF202F2170A114B104B1F0A5
:10090400AA2349F051E0C51AD108E108F501C082D3
:10091400D182E2820BC001FF1DC0F2E0CF1AD108E0
:10092400E108F501C082D182E28214C0A7FF12C09F
:10093400222329F060E070E080E090E804C06FEFCB
:100944007FEF8FEF9FE722E230E0309302012093A4
:10095400010109C0222381F09095809570956195DD
:100964007F4F8F4F9F4F462F372F282F12C040E0C5
:1009740030E020E090E00DC097FFF5CF82E290E0F8
:1009840090930201809301016FEF7FEF8FEF9FE758
:10099400EACF642F732F822F26960FB6F894DEBF0A
:1009A4000FBECDBFDF91CF911F910F91EF90DF90DC
:1009B400CF90BF90AF908F907F906F905F904F904B
:0609C4003F902F90089502
:0409CA00289A0895CA
:1009CE002A988F7180629DB58EBD0DB407FEFDCF46
:1009DE008EB5442391F0FB014150242F30E02F5F60
:1009EE003F4F260F371F81919DB58EBD0DB407FE6B
:0C09FE00FDCF8EB5E217F307B1F777CDFF
:0C0A0A0060E787E04DDD6AE080E04ACD47
:100A1600CF932A988DB58FEF8EBD0DB407FEFDCF0F
:0A0A2600CEB567DD8C2FCF91089547
:100A30002A988F719DB58EBD0DB407FEFDCF8EB582
:100A4000442399F0FB014150242F30E02F5F3F4FAA
:100A5000260F371F80819DB58EBD0DB407FEFDCFDB
:0C0A60008EB58193E217F307A9F746CD8D
:080A6C00FC01848195810895CD
:060A7400FC0182810895DF
:060A7A00FC0183810895D8
:060A8000FC0181810895D4
:060A8600FC0186810895C9
:060A8C00FC0180810895C9
:100A9200A1E21A2EAA1BBB1BFD010DC0AA1FBB1F80
:100AA200EE1FFF1FA217B307E407F50720F0A21BF2
:100AB200B30BE40BF50B661F771F881F991F1A945F
:100AC20069F760957095809590959B01AC01BD0189
:040AD200CF010895B3
:100AD600DB018F939F9313D0BF91AF91A29F800D9F
:0E0AE600911DA39F900DB29F900D11240895B5
:100AF400911110C0803219F089508550D0F70895B3
:100B04000CD0A59F900DB49F900DA49F800D911DB6
:040B1400112408950B
:060B1800992788270895CB
:100B1E00A29FB001B39FC001A39F700D811D112430
:0E0B2E00911DB29F700D811D1124911D08951F
:020B3C0061CA8C
:100B3E000D0A53656E64696E6720436F6D6D616E4D
:100B4E00642E2E2E20000D0A52656365697665644B
:100B5E002041636B2E0053656E74210D0A000D0A41
:100B6E0053656E64696E6720626974737472656131
:030B7E006D2E00D9
:100B81000A1B5B324A0D000D0A496E697469616C7A
:100B9100697A696E67204D41535445522E000D0A02
:100BA1000A57616974696E6720636F6D6D616E6468
:100BB10020696E7075742E000D0A282449442C5347
:100BC100746174652C4D6F64652C496E74656E7328
:100BD1006974792C467265712C447574792C2A29B3
:070BE1000D0A0A000D0A00D5
:100BE8000D0A436F6E6669677572696E67206E726B
:100BF800663234206D6F64756C652E2E2E0020448D
:100C08006F6E6521000D0A496E697469616C697AB5
:100C1800696E67206E72663234206D6F64756C651C
:040C28002E2E2E003E
:0A0C2C004D41535452534C415645BC
:00000001FF
