:100000003CC000000C9490080C9490080C9490084C
:100010000C9490080C9490080C9490080C94900800
:100020000C9490080C9490080C9490080C949008F0
:100030000C9490080C9490080C9490080C949008E0
:100040000C9490080C9490080C9490080C949008D0
:100050000C9490080C9490080C9490080C949008C0
:100060000C9490080C9490080100010A80010A0188
:100070001400120A0114022A800011241FBECFEFBF
:10008000D8E0DEBFCDBFE8E6F0E040E017C0B591B4
:10009000A59135912591059107FD0CC0959185910C
:1000A000EF01F92FE82F05900D92A217B307D9F7AA
:1000B000FE0104C01D92A217B307E1F7E937F40768
:0A00C00031F703D000C0F894FFCF21
:1000CA00CF93DF93CDB7DEB728970FB6F894DEBF8C
:1000DA000FBECDBF97D167E571E180E0E2D06EE552
:1000EA0071E180E0DED084B18E6284B980E58CBD96
:1000FA0034D167E082E0FBD065E771E180E0D1D0DE
:10010A006FE871E180E0CDD07894F12CD12C00E039
:10011A00E12C85E1882E81E0982ECE0101965C01C2
:10012A0098E0C92E250190E8692E20EF722ED1D0D1
:10013A00182FD6D01A3241F11B3278F51D3009F446
:10014A0052C0143209F05EC0F5018C2D11928A95C5
:10015A00E9F7BFD0182FC4D01A3209F45DC008F0ED
:10016A0061C01D3009F43BC0143271F300E0E12C88
:10017A00F501EE0DF11D1083E394FF24F394A9D049
:10018A00182FAED01A32C1F6F11048C040E051E043
:10019A006D2D85E191E0F2D0CACF123459F11236B1
:1001AA0049F11C3279F5023009F464C008F44CC0F4
:1001BA00043009F456C008F466C0053009F06CC072
:1001CA00862DB2016BD0682F80E091E027D106E03E
:1001DA00F5018C2D11928A95E9F7E12CA8CFFF241D
:1001EA00F39400E0E12C6BEB71E180E05AD09FCFF1
:1001FA0000E0E12CF401872D11928A95E9F7F12CA0
:10020A00D12C95CFF110B4CFED2DF0E0EB5EFE4F7F
:10021A0010531083D3948BCF00E0E12C80E091E05F
:10022A0000D1ABCF123421F3123611F31C3209F08C
:10023A009DCFFF24F394862DB20130D0682F80E041
:10024A0091E007D101E0C4CF0023A9F3013021F5E1
:10025A00862DB20123D0682F80E091E0FDD002E024
:10026A00B7CF862DB2011AD0BC0180E091E0F7D059
:10027A0005E0AECF862DB20111D0682F80E091E063
:10028A00F2D003E0A5CF862DB20108D0682F80E016
:0C029A0091E0ECD004E09CCF0F5F9ACF05
:0602A600EAD0CB0108952F
:1002AC009B01482FF901949147FD9081992379F096
:1002BC002F5F3F4F4F4F8091C00085FFFCCF909335
:1002CC00C600F901949147FD90819111F1CF0895E9
:0E02DC008091C00087FFFCCF8091C60008957E
:0E02EA009091C00095FFFCCF8093C600089550
:1002F800CF93DF93C82FD62F66EC71E180E0D2DF71
:10030800D09307016C2F85E0BAD060E081E1B7D0C7
:100318006091070182E1B3D060E083E1B0D060E092
:1003280084E1ADD060E085E1AAD060E086E1A7D0A5
:1003380066E086E0A4D068E080E0A1D060E081E0DB
:100348009ED063E082E09BD060E08CE198D0A7D09B
:0C03580064EE71E180E0DF91CF91A4CF52
:100364006BEE71E180E0A0DF209A8AE091E0B2D0E8
:100374008FE091E0A7D02898ABD064EE71E180E0E3
:0203840093CF15
:10038600EF92FF920F931F93CF937C01C62F8A01A2
:1003960062E471E180E087DF6C2FC701A7D087E0B8
:1003A600E3E2F2E0DF011D928A95E9F7F801808128
:1003B600809323028FEF80932402C09325024091FD
:1003C600140150E0440F551F443051058CF083E072
:1003D60090E023E0FC01ED5DFD4FDC01AE5FBD4F1B
:1003E6008C9180832F5F822F90E08417950794F37A
:1003F60083E292E0D0D0EDD08111FDCFCF911F9155
:080406000F91FF90EF900895A3
:10040E001092C50087E68093C40086E08093C200F8
:08041E0088E18093C1000895FC
:06042600FC01668308954D
:10042C00CF93DF93EC0164E271E180E039DFCE0120
:10043C00D4D0CAE083E292E0ABD0C8D08111FDCF1A
:10044C00C150C1F76AE371E180E0DF91CF9128CF11
:06045C00FC01608308951D
:06046200FC016183089516
:08046800FC0175836483089513
:06047000FC016283089507
:06047600FC016383089500
:0A047C002AE030E040E050E0D6C076
:100486002A988F7180629DB58EBD0DB407FEFDCF93
:100496008EB58DB56EBD0DB407FEFDCF8EB517C0FA
:1004A6002A988DB582EE8EBD0DB407FEFDCF8EB5B2
:1004B6000ED060E787E0E4DF28986BE080E0E0DFBD
:0204C60020C252
:0C04C800289845E0BC018BE01DD21AC250
:0404D4002A9A0895C3
:1004D800CF93DF93EC0145E0BC018AE013D245E0FD
:0A04E800BE0180E1DF91CF910DC24B
:1004F200662309F451C0DC0120E090E045E28D91D1
:10050200220F282B949F312D1124892F831B86952E
:10051200830F86958695382F330F330F330F381B91
:10052200931310C0992371F0E92FE695E695E695AD
:10053200F0E0EB5FFD4F2083809114018F5F809389
:10054200140120E09F5F6913DACF85E2689F912D45
:100552001124862F891B8695890F86958695982F5B
:10056200990F990F990F981B6917B1F0E62FE6952D
:10057200E695E695F0E0EB5FFD4F677088E090E06E
:10058200861B910901C0220F8A95EAF72083809188
:0A05920014018F5F80931401089597
:10059C00CF93DF93EC0128981FD22A988DB581EE6A
:1005AC008EBD0DB407FEFDCF8EB58EDF2A988DB5AE
:1005BC0080EA8EBD0DB407FEFDCF8EB560910701AC
:0C05CC00CE01ACD181DFDF91CF9198C14E
:0E05D8000BD2982F907381E009F080E0089517
:1005E6000F931F93CF93DF938C01C3E2D2E087E092
:1005F600FE0111928A95E9F7C80114D28883C801D1
:100606000BD28983C80102D28A83C80102D28B83A6
:10061600C801F8D18C83C801F5D19D83C801FFD1EB
:0C0626008E83DF91CF911F910F910895FA
:100632002F923F924F925F926F927F928F92AF92E0
:10064200BF92CF92DF92EF920F931F93CF93DF93DC
:1006520000D000D000D0CDB7DEB73B01882E5A01C2
:1006620019014115510521F0FA01608371838283DA
:100672002114310429F0C1010297839708F017C1B0
:10068200E82C6301FFEFCF1ADF0AEF0AF30114919E
:1006920087FC1081812F90E0FBD14C2D3D2D2E2D1A
:1006A200892B19F036018E2CEBCF1D3269F4E82C20
:1006B200630152E0C50ED11CE11CE42FF32F14910B
:1006C20027FD108101E00EC01B3259F4E82C6301B2
:1006D20082E0C80ED11CE11CE42FF32F149127FDF8
:1006E200108100E02114310409F190E1291631044E
:1006F20029F43EC010E32114310421F1F8E02F1651
:10070200310401F154F432E02316310421F5412C75
:10071200512C612C50E4752E4AC04AE02416310453
:1007220039F050E125163104B1F43CC0103311F117
:100732003AE0232E312C4CEC442E542C642C4CE009
:10074200742E35C098E0292E312C412C512C612C6D
:1007520020E1722E2CC060E070E080E090E8910110
:10076200032C000C440B550B62D129013A011FC026
:100772001033C1F4F6018491E7FC80818F7D8835C6
:1007820009F0B8CFAE2DC6010196A11DFC0114914E
:10079200A7FD1081E2E0CE0ED11CE11C026060E1F7
:1007A200262E312C412C512C612C88E0782EA0E091
:1007B20060E070E0CB019101032C000C440B550B5F
:1007C20029833A834B835C83E0EDE10FEA3060F0EA
:1007D2002FEB210F2A3110F4E9EC05C02FE9210F8C
:1007E2002A3148F5E9EAE10F2E2F30E022153305D0
:1007F20014F5A7FD17C0461657066806790678F065
:1008020029813A814B815C8134D16E0F711D811D2A
:10081200911D61307105810530E8930710F0AFEF4B
:1008220001C0A1E0F6011491E7FC10814FEFC41A58
:10083200D40AE40AC9CF202F2170A114B104B1F067
:10084200AA2349F051E0C51AD108E108F501C08296
:10085200D182E2820BC001FF1DC0F2E0CF1AD108A3
:10086200E108F501C082D182E28214C0A7FF12C062
:10087200222329F060E070E080E090E804C06FEF8E
:100882007FEF8FEF9FE722E230E030930901209360
:10089200080109C0222381F0909580957095619599
:1008A2007F4F8F4F9F4F462F372F282F12C040E088
:1008B20030E020E090E00DC097FFF5CF82E290E0BB
:1008C20090930901809308016FEF7FEF8FEF9FE70D
:1008D200EACF642F732F822F26960FB6F894DEBFCD
:1008E2000FBECDBFDF91CF911F910F91EF90DF909F
:1008F200CF90BF90AF908F907F906F905F904F900E
:060902003F902F900895C4
:04090800289A08958C
:10090C009B012A988F7180629DB58EBD0DB407FE38
:0C091C00FDCF8EB5642FC90101D0D6CDEF
:100928004F925F926F928F929F92AF92BF92CF92A7
:10093800DF92EF920F931F93CF93DF9300D0CDB741
:10094800DEB7D82EE92EA62E6EEB71E180E0AADC88
:10095800AA2099F1CE0101964C012C0190E8692E4C
:100968000D2D1E2DAA94B12CAFEFAA1ABA0AA00E0B
:10097800B11E81ECC82E81E1D82E80E0E82EF80166
:1009880080819DB58EBD0DB407FEFDCF8EB50F5F7E
:100998001F4F80811F928F93EF92DF92CF929F9289
:1009A8008F927BD0862DB2017DDC0FB6F894DEBF26
:1009B8000FBECDBF0A151B0511F70F900F90DF91E1
:1009C800CF911F910F91EF90DF90CF90BF90AF9094
:0C09D8009F908F906F905F904F9008955B
:0C09E40060E787E04EDD6AE080E04BCD6C
:1009F000CF932A988DB58FEF8EBD0DB407FEFDCF36
:0A0A0000CEB568DD8C2FCF9108956C
:080A0A00FC018481958108952F
:060A1200FC018281089541
:060A1800FC01838108953A
:060A1E00FC018181089536
:060A2400FC01868108952B
:060A2A00FC01808108952B
:100A3000A1E21A2EAA1BBB1BFD010DC0AA1FBB1FE2
:100A4000EE1FFF1FA217B307E407F50720F0A21B54
:100A5000B30BE40BF50B661F771F881F991F1A94C1
:100A600069F760957095809590959B01AC01BD01EB
:040A7000CF01089515
:100A7400DB018F939F9333D0BF91AF91A29F800DE1
:0E0A8400911DA39F900DB29F900D1124089517
:100A9200911130C0803219F089508550D0F70895F5
:100AA200AFE0B0E0E6E5F5E068C20E891F8986E0B6
:100AB2008D831A8309838FEF9FE79F838E839E0125
:100AC200255E3F4F488D598D6A8DCE01019615D016
:100AD200E885F985E00FF11F10822F96E4E032C21B
:100AE2005AD2A59F900DB49F900DA49F800D911D89
:040AF200112408952E
:060AF600992788270895EE
:100AFC002F923F924F926F927F928F929F92AF92D2
:100B0C00BF92CF92DF92EF92FF920F931F93CF93EE
:100B1C00DF93CDB7DEB762970FB6F894DEBF0FBE8A
:100B2C00CDBF6C013A01862E7901FC01108617822B
:100B3C00848181FFDAC19E012F5F3F4F3D872C8757
:100B4C00C901A0E8888B998BAA8B9FE3992EF3019E
:100B5C00849187FC8081882309F4C3C1482D9301BB
:100B6C002F5F3F4F4F4F853219F03901842E0AC049
:100B7C00F901849147FD808192E0690E711C811C02
:100B8C00853221F4B60190E010D2E1CFB12C00E017
:100B9C0010E01032A0F48B3269F030F4803259F04E
:100BAC00833269F410612CC08D3239F0803339F402
:100BBC00116026C01260146023C0186021C017FD9C
:100BCC0029C090ED980F9A3078F416FF06C0AAE071
:100BDC00BA9E900D1124B92E13C0EAE00E9F900D11
:100BEC001124092F10620CC08E3221F416FD79C12C
:100BFC00106406C08C3611F4106802C0883651F4AB
:100C0C00F301849187FC8081FFEF6F1A7F0A8F0AB2
:100C1C008111BFCF982F9F7D9554933028F424E0F9
:100C2C00E20EF11C99820FC0833631F0833791F0BC
:100C3C00833509F05FC026C0F70180818983970155
:100C4C002E5F3F4F7901288839884A88AA24A394BB
:100C5C00B12C16C0A7014D5F5F4F5F874E87F70120
:100C6C0020803180428016FF03C04B2D50E002C023
:100C7C004FEF5FEF842DB10132D25C01EE84FF8423
:100C8C001F7717C097012D5F3F4F3F872E87F701C6
:100C9C0020803180428016FF03C04B2D50E002C0F3
:100CAC004FEF5FEF842DB1011AD25C011068EE8416
:100CBC00FF8413FD1BC0802F90E0A816B906B0F47A
:100CCC00B60180E290E071D10150F5CFF101849131
:100CDC0047FC8081FFEF2F1A3F0A4F0AB60190E0C4
:100CEC0064D10111015021E0A21AB108A114B10480
:100CFC0069F7EEC0843611F0893669F5F70117FFF4
:100D0C0008C0608171818281938197012C5F3F4F74
:100D1C0009C060817181072E000C880B990B97011B
:100D2C002E5F3F4F79011F76312E97FF0AC09095A9
:100D3C008095709561957F4F8F4F9F4F312F306805
:100D4C00332E2AE030E0AE014F5F5F4F6AD1482E60
:100D5C004C85441A49C0853729F41F7EA12E2AE000
:100D6C0030E025C0512F597FA52E8F36C1F018F4D5
:100D7C00883579F0B6C0803719F0883721F0B1C0CA
:100D8C00852F8061A82EA4FE0DC09A2D9460A92EEB
:100D9C0009C014FF0AC0A52FA660AA2E06C028E021
:100DAC0030E005C020E130E002C020E132E0F70184
:100DBC00A7FE08C06081718182819381A7014C5F7D
:100DCC005F4F07C06081718180E090E0A7014E5FAA
:100DDC005F4F7A01AE014F5F5F4F23D1482E5C8588
:100DEC00451A8A2D8F77382E36FE0DC0932D9E7F97
:100DFC00A92E4B1458F434FE0BC032FC09C0A32DA1
:100E0C00AE7EAA2E05C0142DA32C03C0142D01C038
:100E1C001B2DA4FE0EC0FE01E40DF11D808180335C
:100E2C0021F4EA2DE97EAE2E08C0A2FE05C01E5F9D
:100E3C0004C08A2D867809F01F5FA3FC10C0A0FEA9
:100E4C0006C0101780F4040DB02EB11A0DC0101787
:100E5C0058F4B60180E290E0A8D01F5FF8CF1017CD
:100E6C0018F4011B02C0B42C00E0A4FE0FC0B601A4
:100E7C0080E390E09AD0A2FE16C0A1FC03C088E7E4
:100E8C0090E002C088E590E0B6010CC08A2D86780F
:100E9C0051F0A1FE02C08BE201C080E2A7FC8DE202
:100EAC00B60190E082D04B1430F4B60180E390E0B0
:100EBC007CD0BA94F8CF4A94E1E0F0E0EC0FFD1F3F
:100ECC00E40DF11D8081B60190E06FD04110F3CF9D
:100EDC00002309F43CCEB60180E290E066D00150CC
:100EEC00F7CFF6018781908502C08FEF9FEF629656
:100EFC000FB6F894DEBF0FBECDBFDF91CF911F911F
:100F0C000F91FF90EF90DF90CF90BF90AF909F909C
:0E0F1C008F907F906F904F903F902F90089590
:100F2A002A88398848885F846E847D848C849B846F
:100F3A00AA84B984C884DF80EE80FD800C811B817D
:100F4A00AA81B981CE0FD11D0FB6F894DEBF0FBEAC
:060F5A00CDBFED0108957A
:100F60002F923F924F925F926F927F928F929F92B9
:100F7000AF92BF92CF92DF92EF92FF920F931F93A7
:100F8000CF93DF93CDB7DEB7CA1BDB0B0FB6F89458
:080F9000DEBF0FBECDBF0994C6
:100F9800A29FB001B39FC001A39F700D811D1124B2
:0E0FA800911DB29F700D811D1124911D0895A1
:100FB6000F931F93CF93DF93FB01248121FD03C081
:100FC6008FEF9FEF2CC022FF16C0478150852581E9
:100FD60036814217530744F4A081B1819D012F5FEA
:100FE6003F4F318320838C93278130852F5F3F4F7E
:100FF6003087278314C08B01EC01FB010184F28545
:10100600E02D0995892BE1F6D80117968D919C91D3
:101016001897019618969C938E931797CE01DF9199
:08102600CF911F910F91089575
:10102E00FA01AA27283051F1203181F1E8946F930B
:10103E006E7F6E5F7F4F8F4F9F4FAF4FB1E03ED0B1
:10104E00B4E03CD0670F781F891F9A1FA11D680F4F
:10105E00791F8A1F911DA11D6A0F711D811D911D82
:10106E00A11D20D009F468943F912AE0269F1124F7
:10107E003019305D3193DEF6CF010895462F47705B
:10108E00405D4193B3E00FD0C9F7F6CF462F4F70B6
:10109E00405D4A3318F0495D31FD4052419302D014
:1010AE00A9F7EACFB4E0A6959795879577956795BA
:1010BE00BA95C9F700976105710508959B01AC01BA
:1010CE000A2E06945795479537952795BA95C9F7E1
:0C10DE00620F731F841F951FA01D089552
:1010EA00CF92DF92EF926B01E82EA82FCB01411528
:1010FA00510531F48C199D09EF90DF90CF90089536
:10110A00FC012491A7FD20812223A1F30196A11DB0
:06111A0041505109ECCF29
:041120000C9400002B
:101124000D0A53656E64696E6720436F6D6D616E61
:10113400642E2E2E200053656E74210D0A000D0AB4
:1011440053656E64696E6720626974737472656155
:031154006D2E00FD
:101157000A1B5B324A0D000D0A496E697469616C9E
:10116700697A696E67204D41535445522E000D0A26
:101177000A57616974696E6720636F6D6D616E648C
:1011870020696E7075742E000D0A282449442C536B
:10119700746174652C4D6F64652C496E74656E734C
:1011A7006974792C467265712C447574792C2A29D7
:0711B7000D0A0A000D0A00F9
:1011BE000D0A0025642C20000D0A436F6E666967C8
:1011CE007572696E67206E72663234206D6F64754B
:1011DE006C652E2E2E0020446F6E6521000D0A497F
:1011EE006E697469616C697A696E67206E726632B7
:0C11FE0034206D6F64756C652E2E2E0081
:0A120A004D41535452534C415645D8
:00000001FF
