:100000000C943D000C9435060C9435060C94350682
:100010000C9435060C9435060C9435060C94350674
:100020000C9435060C9435060C9435060C94350664
:100030000C9435060C9435060C9435060C94350654
:100040000C9435060C9435060C9435060C94350644
:100050000C9435060C9435060C9435060C94350634
:100060000C9435060C943506010001208001200116
:1000700026000C6E01260127800011241FBECFEF41
:10008000D8E0DEBFCDBFE8E6F0E040E017C0B591B4
:10009000A59135912591059107FD0CC0959185910C
:1000A000EF01F92FE82F05900D92A217B307D9F7AA
:1000B000FE0104C01D92A217B307E1F7E937F40768
:0E00C00031F70E94C7020C946500F894FFCF40
:1000CE001B5B324A0D0A000D0A4E52463234204E48
:1000DE006F7420636F6E6E656374656421000D0A24
:1000EE00526561647920746F207265636569766507
:1000FE002E000D0A446174612072656164793A20A4
:0B010E000025632000202D2025640048
:100119000D0A6C656E3A2564000D0A000D0A4669E0
:10012900666F206861732064617461000D0A44611F
:0C0139007461207265636569766564007E
:100146002F923F924F926F927F928F929F92AF9291
:10015600BF92CF92DF92EF92FF920F931F93CF93AE
:10016600DF93CDB7DEB762970FB6F894DEBF0FBE4A
:10017600CDBF6C013A01862E7901FC0110861782EB
:10018600848181FFE7C19E012F5F3F4F3D872C870A
:10019600C901A0E8888B998BAA8B9FE3992EF3015E
:1001A600849187FC8081882309F4D0C1482D93016E
:1001B6002F5F3F4F4F4F853219F03901842E0AC009
:1001C600F901849147FD808192E0690E711C811CC2
:1001D600853229F4B60190E00E945104E0CFB12C9B
:1001E60000E010E01032A0F48B3269F030F4803277
:1001F60059F0833269F410612CC08D3239F08033A6
:1002060039F4116026C01260146023C0186021C042
:1002160017FD29C090ED980F9A3078F416FF06C0A6
:10022600AAE0BA9E900D1124B92E13C0EAE00E9FE3
:10023600900D1124092F10620CC08E3221F416FD88
:1002460085C1106406C08C3611F4106802C0883669
:1002560051F4F301849187FC8081FFEF6F1A7F0AC6
:100266008F0A8111BFCF982F9F7D9554933028F424
:1002760024E0E20EF11C99820FC0833631F08337F9
:1002860091F0833509F063C027C0F7018081898327
:1002960097012E5F3F4F7901288839884A88AA241A
:1002A600A394B12C17C0A7014D5F5F4F5F874E87A0
:1002B600F70120803180428016FF03C04B2D50E0AD
:1002C60002C04FEF5FEF842DB1010E944F055C0124
:1002D600EE84FF841F7718C097012D5F3F4F3F873D
:1002E6002E87F70120803180428016FF03C04B2DF8
:1002F60050E002C04FEF5FEF842DB1010E944F0521
:100306005C011068EE84FF8413FD1DC0802F90E011
:10031600A816B906C0F4B60180E290E00E94510426
:100326000150F4CFF101849147FC8081FFEF2F1A31
:100336003F0A4F0AB60190E00E9451040111015094
:1003460021E0A21AB108A114B10461F7F5C0843600
:1003560011F0893671F5F70117FF08C060817181C8
:100366008281938197012C5F3F4F09C06081718123
:10037600072E000C880B990B97012E5F3F4F7901D2
:100386001F76312E97FF0AC09095809570956195DE
:100396007F4F8F4F9F4F312F3068332E2AE030E04A
:1003A600AE014F5F5F4F0E945D03482E4C85441A95
:1003B6004AC0853729F41F7EA12E2AE030E025C0E9
:1003C600512F597FA52E8F36C1F018F4883579F054
:1003D600BDC0803719F0883721F0B8C0852F8061FD
:1003E600A82EA4FE0DC09A2D9460A92E09C014FF54
:1003F6000AC0A52FA660AA2E06C028E030E005C0D8
:1004060020E130E002C020E132E0F701A7FE08C09B
:100416006081718182819381A7014C5F5F4F07C024
:100426006081718180E090E0A7014E5F5F4F7A01A5
:10043600AE014F5F5F4F0E945D03482E5C85451AF3
:100446008A2D8F77382E36FE0DC0932D9E7FA92ECE
:100456004B1458F434FE0BC032FC09C0A32DAE7EFB
:10046600AA2E05C0142DA32C03C0142D01C01B2DCC
:10047600A4FE0EC0FE01E40DF11D8081803321F43F
:10048600EA2DE97EAE2E08C0A2FE05C01E5F04C09E
:100496008A2D867809F01F5FA3FC11C0A0FE06C056
:1004A600101788F4040DB02EB11A0EC0101760F4A0
:1004B600B60180E290E00E9451041F5FF7CF10174B
:1004C60018F4011B02C0B42C00E0A4FE10C0B60153
:1004D60080E390E00E945104A2FE17C0A1FC03C075
:1004E60088E790E002C088E590E0B6010CC08A2D4E
:1004F600867859F0A1FE02C08BE201C080E2A7FC1B
:100506008DE2B60190E00E9451044B1438F4B60116
:1005160080E390E00E945104BA94F7CF4A94E1E058
:10052600F0E0EC0FFD1FE40DF11D8081B60190E0B7
:100536000E9451044110F2CF002309F430CEB601D7
:1005460080E290E00E9451040150F6CFF6018781C7
:10055600908502C08FEF9FEF62960FB6F894DEBFCC
:100566000FBECDBFDF91CF911F910F91FF90EF90FE
:10057600DF90CF90BF90AF909F908F907F906F90BD
:080586004F903F902F90089563
:10058E00FF920F931F93CF93DF93CDB7DEB7649790
:10059E000FB6F894DEBF0FBECDBFFE01319684E1DB
:1005AE00DF011D928A95E9F70FB6F894A895809110
:1005BE006000886180936000109260000FBE0E9400
:1005CE0007066EEC70E080E00E9485050E9413061F
:1005DE0063E271E080E291E00E940704811153C052
:1005EE006CEE70E080E00E9485050E94ED05882388
:1005FE00E1F366E271E080E091E00E94C30460E006
:10060E0071E080E00E948505F12C1EC0EF2DF0E018
:10061E00E050FF4F80811F928F938FE091E0A0E01A
:10062E00AF939F938F938E010F5F1F4F1F930F9367
:10063E000E94F404B80180E80E948505F3940FB679
:10064E00F894DEBF0FBECDBF80912601F816F0F2F2
:10065E00809126011F928F9383E191E0A0E0AF93EA
:10066E009F938F938E010F5F1F4F1F930F930E94C7
:10067E00F404B80180E80E9485050FB6F894DEBF39
:10068E000FBECDBFB2CF65ED70E080E00E94850554
:10069E008FEF9FEF64960FB6F894DEBF0FBECDBFFF
:0C06AE00DF91CF911F910F91FF900895F4
:1006BA00FA01AA27283051F1203181F1E8946F9389
:1006CA006E7F6E5F7F4F8F4F9F4FAF4FB1E03ED02F
:1006DA00B4E03CD0670F781F891F9A1FA11D680FCD
:1006EA00791F8A1F911DA11D6A0F711D811D911D00
:1006FA00A11D20D009F468943F912AE0269F112475
:10070A003019305D3193DEF6CF010895462F4770D8
:10071A00405D4193B3E00FD0C9F7F6CF462F4F7033
:10072A00405D4A3318F0495D31FD4052419302D091
:10073A00A9F7EACFB4E0A695979587957795679537
:10074A00BA95C9F700976105710508959B01AC0137
:10075A000A2E06945795479537952795BA95C9F75E
:0C076A00620F731F841F951FA01D0895CF
:100776000F931F93CF93DF93CDB7DEB764970FB672
:10078600F894DEBF0FBECDBF80E00E941E0680E655
:100796000E942F0680E00E942F06182F81E00E94FB
:1007A6001E068FEF810F803218F180E00E941E0630
:1007B60082EE0E942F0681E00E941E061F921F9362
:1007C60089E191E0A0E0AF939F938F938E010F5F35
:1007D6001F4F1F930F930E94F404B80180E80E94F4
:1007E60085050FB6F894DEBF0FBECDBF80E001C011
:1007F600812F64960FB6F894DEBF0FBECDBFDF9192
:08080600CF911F910F9108959D
:10080E000F931F93CF93DF938C01EB0184B185601F
:10081E0084B980E00E94C30581E00E941E068FE12C
:10082E009EE40197F1F700C0000061E083E00E94B2
:10083E009B05C8010E948D04CE010E94170562E03F
:10084E0085E00E949B0563E08CE10E949B0564E0BD
:10085E008DE10E949B056EE086E00E949B0563E0A1
:10086E0081E00E949B056FE784E00E949B0584E077
:10087E000E94B0058F3741F460E787E00E949B0528
:10088E000E94FB0580E001C081E0DF91CF911F91B6
:04089E000F91089519
:1008A2000F931F93CF93DF93FB01248121FD03C09C
:1008B2008FEF9FEF2CC022FF16C047815085258104
:1008C20036814217530744F4A081B1819D012F5F05
:1008D2003F4F318320838C93278130852F5F3F4F99
:1008E2003087278314C08B01EC01FB010184F28560
:1008F200E02D0995892BE1F6D80117968D919C91EF
:100902001897019618969C938E931797CE01DF91B4
:08091200CF911F910F91089590
:10091A000F931F93CF938C0180E00E941E0680E301
:10092A000E942F06C0E007C0F801EC0FF11D80817C
:10093A000E942F06CF5FC330B8F381E00E941E06E3
:10094A008FE891E00197F1F700C0000080E00E9473
:10095A001E068AE20E942F06C0E007C0F801EC0FCB
:10096A00F11D80810E942F06CF5FC330B8F381E06A
:0C097A000E941E06CF911F910F9108955E
:10098600CF92DF92EF92FF920F931F93CF936C015A
:100996007B0160E487E00E949B050E94BB03F70190
:1009A600808380E00E941E0681E60E942F06C0E03A
:1009B60009C086010C0F111D80E00E942F06F80168
:1009C6008083CF5FF7018081C81798F381E00E948A
:1009D6001E06CF911F910F91FF90EF90DF90CF9061
:0209E600089572
:1009E800AFE0B0E0EAEFF4E00C9441050E891F890E
:1009F80086E08D831A8309838FEF9FE79F838E8319
:100A08009E01255E3F4F488D598D6A8DCE01019616
:100A18000E94A300E885F985E00FF11F10822F9648
:060A2800E4E00C947805E7
:100A2E000F931F93CF938C0180E00E941E068BE2E2
:100A3E000E942F06C0E007C0F801EC0FF11D808167
:100A4E000E942F06CF5FC330B8F381E00E941E06CE
:080A5E00CF911F910F91089543
:100A66002F923F924F925F926F927F928F929F92B8
:100A7600AF92BF92CF92DF92EF92FF920F931F93A6
:100A8600CF93DF93CDB7DEB7CA1BDB0B0FB6F89457
:080A9600DEBF0FBECDBF0994C5
:100A9E00CF92DF92EF926B01E82EA82FCB0141157A
:100AAE00510531F48C199D09EF90DF90CF90089588
:100ABE00FC012491A7FD20812223A1F30196A11D03
:060ACE0041505109ECCF7C
:100AD4002A88398848885F846E847D848C849B84CA
:100AE400AA84B984C884DF80EE80FD800C811B81D8
:100AF400AA81B981CE0FD11D0FB6F894DEBF0FBE07
:060B0400CDBFED010895D4
:100B0A00CF92DF92EF926B01E82E06C09FEFC91ACF
:100B1A00D90AE90A0E942806F6018491E7FC808135
:0C0B2A008111F4CFEF90DF90CF90089580
:100B3600CF93DF93C82FD62F80E00E941E068C2FFE
:100B46008F7180620E942F068D2F0E942F0681E0F2
:0A0B56000E941E06DF91CF91089562
:100B6000CF93C82F80E00E941E068C2F8F710E94A9
:100B70002F0680E00E942F06C82F81E00E941E06EB
:060B80008C2FCF910895B7
:100B8600882341F085B1816085B985E38A95F1F7BF
:0C0B96000000089585B18E7F85B9089598
:100BA200CF9380E00E941E068FEF0E942F06C82F6F
:0C0BB20081E00E941E068C2FCF91089558
:100BBE0087E10E94B00580FD07C065E271E080E02C
:0C0BCE000E94850581E0089580E00895F4
:100BDA000E94D10586FF07C065E371E080E00E94AC
:0C0BEA00850581E008950E94DF05089554
:100BF6006FE780E00E949B0562E082E00E949B0511
:080C060081E00E94C30508957E
:100C0E001092C50087E68093C40086E08093C200F0
:080C1E0088E18093C1000895F4
:100C260084B18E6284B984B18F7E84B980E58CBD2F
:060C360081E08DBD089570
:100C3C00882321F085B1846085B9089585B18B7FB7
:040C4C0085B90895C9
:0E0C50009091C00095FFFCCF8093C6000895E0
:0C0C5E008EBD0DB407FEFDCF8EB50895CD
:040C6A000C940000E6
:030C6E000510204E
:030C71002010054B
:00000001FF
