:100000000C943A000C94E4050C94E4050C94E4057B
:100010000C94E4050C94E4050C94E4050C94E405BC
:100020000C94E4050C94E4050C94E4050C94E405AC
:100030000C94E4050C94E4050C94E4050C94E4059C
:100040000C94E4050C94E4050C94E4050C94E4058C
:100050000C94E4050C94E4050C94E4050C94E4057C
:100060000C94E4050C94E4050100010180010101F8
:100070000B000BCC11241FBECFEFD8E0DEBFCDBFED
:10008000E8E6F0E040E017C0B591A59135912591E3
:10009000059107FD0CC095918591EF01F92FE82F8F
:1000A00005900D92A217B307D9F7FE0104C01D9267
:1000B000A217B307E1F7E437F40731F70E949D0276
:0800C0000C946200F894FFCFDC
:1000C8001B5B324A0D0A000D0A000D547279202577
:1000D80064202E2E2E20000D0A4461746120726562
:0A00E8006164793A200025632000CE
:1000F2002F923F924F926F927F928F929F92AF92E6
:10010200BF92CF92DF92EF92FF920F931F93CF9302
:10011200DF93CDB7DEB762970FB6F894DEBF0FBE9E
:10012200CDBF6C013A01862E7901FC01108617823F
:10013200848181FFE7C19E012F5F3F4F3D872C875E
:10014200C901A0E8888B998BAA8B9FE3992EF301B2
:10015200849187FC8081882309F4D0C1482D9301C2
:100162002F5F3F4F4F4F853219F03901842E0AC05D
:10017200F901849147FD808192E0690E711C811C16
:10018200853229F4B60190E00E948003E0CFB12CC1
:1001920000E010E01032A0F48B3269F030F48032CB
:1001A20059F0833269F410612CC08D3239F08033FA
:1001B20039F4116026C01260146023C0186021C097
:1001C20017FD29C090ED980F9A3078F416FF06C0FB
:1001D200AAE0BA9E900D1124B92E13C0EAE00E9F38
:1001E200900D1124092F10620CC08E3221F416FDDD
:1001F20085C1106406C08C3611F4106802C08836BE
:1002020051F4F301849187FC8081FFEF6F1A7F0A1A
:100212008F0A8111BFCF982F9F7D9554933028F478
:1002220024E0E20EF11C99820FC0833631F083374D
:1002320091F0833509F063C027C0F701808189837B
:1002420097012E5F3F4F7901288839884A88AA246E
:10025200A394B12C17C0A7014D5F5F4F5F874E87F4
:10026200F70120803180428016FF03C04B2D50E001
:1002720002C04FEF5FEF842DB1010E94B2045C0116
:10028200EE84FF841F7718C097012D5F3F4F3F8791
:100292002E87F70120803180428016FF03C04B2D4C
:1002A20050E002C04FEF5FEF842DB1010E94B20413
:1002B2005C011068EE84FF8413FD1DC0802F90E066
:1002C200A816B906C0F4B60180E290E00E9480034D
:1002D2000150F4CFF101849147FC8081FFEF2F1A86
:1002E2003F0A4F0AB60190E00E94800301110150BB
:1002F20021E0A21AB108A114B10461F7F5C0843655
:1003020011F0893671F5F70117FF08C0608171811C
:100312008281938197012C5F3F4F09C06081718177
:10032200072E000C880B990B97012E5F3F4F790126
:100332001F76312E97FF0AC0909580957095619532
:100342007F4F8F4F9F4F312F3068332E2AE030E09E
:10035200AE014F5F5F4F0E942203482E4C85441A24
:100362004AC0853729F41F7EA12E2AE030E025C03D
:10037200512F597FA52E8F36C1F018F4883579F0A8
:10038200BDC0803719F0883721F0B8C0852F806151
:10039200A82EA4FE0DC09A2D9460A92E09C014FFA8
:1003A2000AC0A52FA660AA2E06C028E030E005C02C
:1003B20020E130E002C020E132E0F701A7FE08C0F0
:1003C2006081718182819381A7014C5F5F4F07C079
:1003D2006081718180E090E0A7014E5F5F4F7A01FA
:1003E200AE014F5F5F4F0E942203482E5C85451A83
:1003F2008A2D8F77382E36FE0DC0932D9E7FA92E23
:100402004B1458F434FE0BC032FC09C0A32DAE7E4F
:10041200AA2E05C0142DA32C03C0142D01C01B2D20
:10042200A4FE0EC0FE01E40DF11D8081803321F493
:10043200EA2DE97EAE2E08C0A2FE05C01E5F04C0F2
:100442008A2D867809F01F5FA3FC11C0A0FE06C0AA
:10045200101788F4040DB02EB11A0EC0101760F4F4
:10046200B60180E290E00E9480031F5FF7CF101771
:1004720018F4011B02C0B42C00E0A4FE10C0B601A7
:1004820080E390E00E948003A2FE17C0A1FC03C09B
:1004920088E790E002C088E590E0B6010CC08A2DA2
:1004A200867859F0A1FE02C08BE201C080E2A7FC6F
:1004B2008DE2B60190E00E9480034B1438F4B6013D
:1004C20080E390E00E948003BA94F7CF4A94E1E07F
:1004D200F0E0EC0FFD1FE40DF11D8081B60190E00C
:1004E2000E9480034110F2CF002309F430CEB601FE
:1004F20080E290E00E9480030150F6CFF6018781EE
:10050200908502C08FEF9FEF62960FB6F894DEBF20
:100512000FBECDBFDF91CF911F910F91FF90EF9052
:10052200DF90CF90BF90AF909F908F907F906F9011
:080532004F903F902F900895B7
:10053A00CF93DF93CDB7DEB7E4970FB6F894DEBF5B
:10054A000FBECDBF0FB6F894A89580916000886160
:10055A0080936000109260000FBE0E94BD0568EC97
:10056A0070E080E00E94310584B18E6284B980E532
:10057A008CBD0E941B05FE01B19684E1DF011D922C
:10058A008A95E9F76FEC70E080E00E943105812CD2
:10059A00912C54011DC075016401BFEFCB1ADB0A0F
:1005AA00EB0AFB0A9F928F9282ED90E0A0E0AF9354
:1005BA009F938F93CE0181969F938F930E941E04DF
:1005CA000FB6F894DEBF0FBECDBF4601570104C077
:1005DA000E94AF058823F9F267E070E0CE01019628
:1005EA000E94EE036FED70E080E00E943105F12C6D
:1005FA0020C0E1E0F0E0EC0FFD1FEF0DF11D80815E
:10060A001F928F938EEE90E0A0E0AF939F938F930B
:10061A008E010F5D1F4F1F930F930E941E04B80196
:10062A0080E80E943105F3940FB6F894DEBF0FBE3E
:0A063A00CDBFB6E0BF15E8F6CBCF48
:10064400FA01AA27283051F1203181F1E8946F93FF
:100654006E7F6E5F7F4F8F4F9F4FAF4FB1E03ED0A5
:10066400B4E03CD0670F781F891F9A1FA11D680F43
:10067400791F8A1F911DA11D6A0F711D811D911D76
:10068400A11D20D009F468943F912AE0269F1124EB
:100694003019305D3193DEF6CF010895462F47704F
:1006A400405D4193B3E00FD0C9F7F6CF462F4F70AA
:1006B400405D4A3318F0495D31FD4052419302D008
:1006C400A9F7EACFB4E0A6959795879577956795AE
:1006D400BA95C9F700976105710508959B01AC01AE
:1006E4000A2E06945795479537952795BA95C9F7D5
:0C06F400620F731F841F951FA01D089546
:100700000F931F93CF93DF93FB01248121FD03C03F
:100710008FEF9FEF2CC022FF16C0478150852581A7
:1007200036814217530744F4A081B1819D012F5FA8
:100730003F4F318320838C93278130852F5F3F4F3C
:100740003087278314C08B01EC01FB010184F28503
:10075000E02D0995892BE1F6D80117968D919C9192
:100760001897019618969C938E931797CE01DF9158
:08077000CF911F910F91089534
:1007780060930001682F85E00E94020560E081E136
:100788000E9402056091000182E10E94020560E07A
:1007980083E10E94020560E084E10E94020560E0B6
:1007A80085E10E94020560E086E10E9402056EE094
:1007B80086E00E94020568E080E00E94020563E08E
:1007C80082E00E94020560E08CE10E9402050E941E
:0407D80097040895E5
:1007DC000F931F93CF93DF93EC018B010E9447057E
:1007EC00F801808380E00E94D30581E68EBD0DB4B4
:1007FC0007FEFDCF8EB580E00BC09E012F5F3F4FF3
:10080C001EBC0DB407FEFDCF9EB598838F5FE9012A
:10081C00F8019081891788F381E00E94D30560E488
:10082C0087E00E940205DF91CF911F910F910895EF
:10083C00AFE0B0E0E4E2F4E00C9489040E891F8987
:10084C0086E08D831A8309838FEF9FE79F838E83C6
:10085C009E01255E3F4F488D598D6A8DCE010196C4
:10086C000E947900E885F985E00FF11F10822F9620
:06087C00E4E00C94DB0433
:100882000F931F93CF93DF93C82F8B01D42F80E058
:100892000E94D305CF71CEBD0DB407FEFDCF8EB53C
:1008A2004D2FB801C8010E94E80481E00E94D305DF
:0A08B200DF91CF911F910F9108957F
:1008BC000F931F93CF93DF93C82F8B01D42F80E01E
:1008CC000E94D305CF71C062CEBD0DB407FEFDCF23
:1008DC008EB56D2FC8010E947F0581E00E94D30563
:0A08EC00DF91CF911F910F91089545
:1008F6002F923F924F925F926F927F928F929F922A
:10090600AF92BF92CF92DF92EF92FF920F931F9317
:10091600CF93DF93CDB7DEB7CA1BDB0B0FB6F894C8
:08092600DEBF0FBECDBF099436
:10092E0080E00E94D30582EE8EBD0DB407FEFDCF92
:10093E008EB581E00E94D30560E787E00E94020534
:10094E0080E00E94C9056BE080E00E94020581E014
:06095E000E94C905089586
:10096400CF92DF92EF926B01E82EA82FCB014115B5
:10097400510531F48C199D09EF90DF90CF900895C3
:10098400FC012491A7FD20812223A1F30196A11D3E
:0609940041505109ECCFB7
:10099A002A88398848885F846E847D848C849B8405
:1009AA00AA84B984C884DF80EE80FD800C811B8113
:1009BA00AA81B981CE0FD11D0FB6F894DEBF0FBE42
:0609CA00CDBFED01089510
:1009D000CF93DF93DC0190E010C0292F30E0FB01C2
:1009E000E20FF31FED01C20FD31F28812EBD0DB4FE
:1009F00007FEFDCF2EB520839F5F941770F3DF9124
:040A0000CF910895F5
:100A0400CF93DF93C82FD62F80E00E94D305CF71F8
:100A1400C062CEBD0DB407FEFDCF8EB5DEBD0DB4F4
:100A240007FEFDCF8EB581E00E94D305DF91CF9103
:020A3400089523
:100A360084B1856084B981E091E00E949F0586E0DB
:100A460091E00E946E0580E00E94C90581E00E9447
:0C0A5600D30567E082E00E94BC03089515
:100A6200CF92DF92EF926B01E82E06C09FEFC91A78
:100A7200D90AE90A0E94DD05F6018491E7FC80812A
:0C0A82008111F4CFEF90DF90CF90089529
:100A8E00CF9380E00E94D30580E68EBD0DB407FEA5
:100A9E00FDCF8EB51EBC0DB407FEFDCFCEB581E0E9
:0A0AAE000E94D3058C2FCF9108950C
:100AB800CF93DF931F92CDB7DEB741E0BE016F5FE2
:100AC8007F4F87E10E944104898181700F90DF91F7
:040AD800CF9108951D
:100ADC00CF93DF93EC0180E00E94C90545E0BE0195
:100AEC008BE00E945E0481E00E94C905DF91CF91EA
:020AFC0008955B
:100AFE00AC0190E00AC0FA01E90FF11D20812EBD74
:100B0E000DB407FEFDCF8EB59F5F9617A0F3089527
:100B1E00CF9380E00E94D3058FEF8EBD0DB407FEFC
:100B2E00FDCFCEB581E00E94D3058C2FCF910895D5
:100B3E00CF93DF93EC0145E0BC018AE00E945E0496
:100B4E0045E0BE0180E10E945E04DF91CF910895E1
:100B5E000E948F0586FD07C00E945C0591E08823E8
:0C0B6E0019F090E001C091E0892F08957B
:100B7A001092C50087E68093C40086E08093C20085
:080B8A0088E18093C100089589
:100B9200882321F085B1816085B9089585B18E7F62
:040BA20085B9089574
:100BA600882321F085B1846085B9089585B18B7F4E
:040BB60085B9089560
:0E0BBA009091C00095FFFCCF8093C600089577
:040BC8000C94000089
:0A0BCC004D41535452534C4156451D
:00000001FF
