:100000000C9440000C94F8050C94F8050C94F80539
:100010000C94F8050C94F8050C94F8050C94F8056C
:100020000C94F8050C94F8050C94F8050C94F8055C
:100030000C94F8050C94F8050C94F8050C94F8054C
:100040000C94F8050C94F8050C94F8050C94F8053C
:100050000C94F8050C94F8050C94F8050C94F8052C
:100060000C94F8050C94F805010001208001200192
:1000700026000BF401260127800127012800011F1B
:1000800011241FBECFEFD8E0DEBFCDBFE8E6F0E021
:1000900040E017C0B591A59135912591059107FDD7
:1000A0000CC095918591EF01F92FE82F05900D92E5
:1000B000A217B307D9F7FE0104C01D92A217B30718
:1000C000E1F7E038F40731F70E94B4020C946800BD
:0400D000F894FFCFD2
:1000D4001B5B324A0D0A000D0A4E52463234204E42
:1000E4006F7420636F6E6E656374656421000D0A1E
:1000F400526561647920746F207265636569766501
:100104002E000D0A446174612072656164793A209D
:0B0114000025632000202D2025640042
:01011F0002DD
:100120002F923F924F926F927F928F929F92AF92B7
:10013000BF92CF92DF92EF92FF920F931F93CF93D4
:10014000DF93CDB7DEB762970FB6F894DEBF0FBE70
:10015000CDBF6C013A01862E7901FC011086178211
:10016000848181FFE7C19E012F5F3F4F3D872C8730
:10017000C901A0E8888B998BAA8B9FE3992EF30184
:10018000849187FC8081882309F4D0C1482D930194
:100190002F5F3F4F4F4F853219F03901842E0AC02F
:1001A000F901849147FD808192E0690E711C811CE8
:1001B000853229F4B60190E00E94F203E0CFB12C21
:1001C00000E010E01032A0F48B3269F030F480329D
:1001D00059F0833269F410612CC08D3239F08033CC
:1001E00039F4116026C01260146023C0186021C069
:1001F00017FD29C090ED980F9A3078F416FF06C0CD
:10020000AAE0BA9E900D1124B92E13C0EAE00E9F09
:10021000900D1124092F10620CC08E3221F416FDAE
:1002200085C1106406C08C3611F4106802C088368F
:1002300051F4F301849187FC8081FFEF6F1A7F0AEC
:100240008F0A8111BFCF982F9F7D9554933028F44A
:1002500024E0E20EF11C99820FC0833631F083371F
:1002600091F0833509F063C027C0F701808189834D
:1002700097012E5F3F4F7901288839884A88AA2440
:10028000A394B12C17C0A7014D5F5F4F5F874E87C6
:10029000F70120803180428016FF03C04B2D50E0D3
:1002A00002C04FEF5FEF842DB1010E9410055C0189
:1002B000EE84FF841F7718C097012D5F3F4F3F8763
:1002C0002E87F70120803180428016FF03C04B2D1E
:1002D00050E002C04FEF5FEF842DB1010E94100586
:1002E0005C011068EE84FF8413FD1DC0802F90E038
:1002F000A816B906C0F4B60180E290E00E94F203AD
:100300000150F4CFF101849147FC8081FFEF2F1A57
:100310003F0A4F0AB60190E00E94F203011101501A
:1003200021E0A21AB108A114B10461F7F5C0843626
:1003300011F0893671F5F70117FF08C060817181EE
:100340008281938197012C5F3F4F09C06081718149
:10035000072E000C880B990B97012E5F3F4F7901F8
:100360001F76312E97FF0AC0909580957095619504
:100370007F4F8F4F9F4F312F3068332E2AE030E070
:10038000AE014F5F5F4F0E944A03482E4C85441ACE
:100390004AC0853729F41F7EA12E2AE030E025C00F
:1003A000512F597FA52E8F36C1F018F4883579F07A
:1003B000BDC0803719F0883721F0B8C0852F806123
:1003C000A82EA4FE0DC09A2D9460A92E09C014FF7A
:1003D0000AC0A52FA660AA2E06C028E030E005C0FE
:1003E00020E130E002C020E132E0F701A7FE08C0C2
:1003F0006081718182819381A7014C5F5F4F07C04B
:100400006081718180E090E0A7014E5F5F4F7A01CB
:10041000AE014F5F5F4F0E944A03482E5C85451A2C
:100420008A2D8F77382E36FE0DC0932D9E7FA92EF4
:100430004B1458F434FE0BC032FC09C0A32DAE7E21
:10044000AA2E05C0142DA32C03C0142D01C01B2DF2
:10045000A4FE0EC0FE01E40DF11D8081803321F465
:10046000EA2DE97EAE2E08C0A2FE05C01E5F04C0C4
:100470008A2D867809F01F5FA3FC11C0A0FE06C07C
:10048000101788F4040DB02EB11A0EC0101760F4C6
:10049000B60180E290E00E94F2031F5FF7CF1017D1
:1004A00018F4011B02C0B42C00E0A4FE10C0B60179
:1004B00080E390E00E94F203A2FE17C0A1FC03C0FB
:1004C00088E790E002C088E590E0B6010CC08A2D74
:1004D000867859F0A1FE02C08BE201C080E2A7FC41
:1004E0008DE2B60190E00E94F2034B1438F4B6019D
:1004F00080E390E00E94F203BA94F7CF4A94E1E0DF
:10050000F0E0EC0FFD1FE40DF11D8081B60190E0DD
:100510000E94F2034110F2CF002309F430CEB6015D
:1005200080E290E00E94F2030150F6CFF60187814D
:10053000908502C08FEF9FEF62960FB6F894DEBFF2
:100540000FBECDBFDF91CF911F910F91FF90EF9024
:10055000DF90CF90BF90AF909F908F907F906F90E3
:080560004F903F902F90089589
:10056800FF920F931F93CF93DF93CDB7DEB76497B6
:100578000FB6F894DEBF0FBECDBFFE01319684E101
:10058800DF011D928A95E9F70FB6F894A895809136
:100598006000886180936000109260000FBE0E9426
:1005A800B80564ED70E080E00E945E050E94C40515
:1005B80063E271E080E291E00E94A803811153C0D8
:1005C80062EF70E080E00E945E050E94E2058823E9
:1005D800E1F366E271E080E091E00E94640466E085
:1005E80071E080E00E945E05F12C1EC0EF2DF0E066
:1005F800E050FF4F80811F928F9385E191E0A0E04A
:10060800AF939F938F938E010F5F1F4F1F930F938D
:100618000E949504B80180E80E945E05F3940FB625
:10062800F894DEBF0FBECDBF80912601F816F0F218
:10063800809126011F928F9389E191E0A0E0AF930A
:100648009F938F938E010F5F1F4F1F930F930E94ED
:100658009504B80180E80E945E050FB6F894DEBFE5
:100668000FBECDBFB2CF6BED70E080E00E945E059B
:100678008FEF9FEF64960FB6F894DEBF0FBECDBF25
:0C068800DF91CF911F910F91FF9008951A
:10069400FA01AA27283051F1203181F1E8946F93AF
:1006A4006E7F6E5F7F4F8F4F9F4FAF4FB1E03ED055
:1006B400B4E03CD0670F781F891F9A1FA11D680FF3
:1006C400791F8A1F911DA11D6A0F711D811D911D26
:1006D400A11D20D009F468943F912AE0269F11249B
:1006E4003019305D3193DEF6CF010895462F4770FF
:1006F400405D4193B3E00FD0C9F7F6CF462F4F705A
:10070400405D4A3318F0495D31FD4052419302D0B7
:10071400A9F7EACFB4E0A69597958795779567955D
:10072400BA95C9F700976105710508959B01AC015D
:100734000A2E06945795479537952795BA95C9F784
:0C074400620F731F841F951FA01D0895F5
:100750000F931F93CF93DF938C01EB0184B18560DE
:1007600084B980E00E949C0581E00E94CF058FE162
:100770009EE40197F1F700C0000061E083E00E9471
:100780007405C8010E942E04CE010E94D80462E0C4
:1007900085E00E94740563E08CE10E94740564E0CA
:1007A0008DE10E9474056EE086E00E94740563E0AE
:1007B00081E00E9474056FE784E00E94740584E084
:1007C0000E9489058F3741F460E787E00E94740535
:1007D0000E94460580E001C081E0DF91CF911F912A
:0407E0000F910895D8
:1007E4000F931F93CF93DF93FB01248121FD03C05B
:1007F4008FEF9FEF2CC022FF16C0478150852581C3
:1008040036814217530744F4A081B1819D012F5FC3
:100814003F4F318320838C93278130852F5F3F4F57
:100824003087278314C08B01EC01FB010184F2851E
:10083400E02D0995892BE1F6D80117968D919C91AD
:100844001897019618969C938E931797CE01DF9173
:08085400CF911F910F9108954F
:10085C000F931F93CF938C0180E00E94CF0580E310
:10086C000E94F205C0E007C0F801EC0FF11D808179
:10087C000E94F205CF5FC330B8F381E00E94CF0530
:10088C008FE891E00197F1F700C0000080E00E9432
:10089C00CF058AE20E94F205C0E007C0F801EC0F18
:1008AC00F11D80810E94F205CF5FC330B8F381E067
:0C08BC000E94CF05CF911F910F9108956D
:1008C800CF92DF92EF92FF920F931F93CF936C0119
:1008D8007B0160E487E00E9474050E94B804F70178
:1008E800808380E00E94CF0581E60E94F205C0E087
:1008F80009C086010C0F111D80E00E94F205F80165
:100908008083CF5FF7018081C81798F381E00E9448
:10091800CF05CF911F910F91FF90EF90DF90CF906F
:02092800089530
:10092A00AFE0B0E0EBE9F4E00C9402050E891F8910
:10093A0086E08D831A8309838FEF9FE79F838E83D7
:10094A009E01255E3F4F488D598D6A8DCE010196D5
:10095A000E949000E885F985E00FF11F10822F961A
:06096A00E4E00C943905E5
:10097000CF9380E00E94CF0580E60E94F20580E0E0
:100980000E94F205C82F81E00E94CF058FEF8C0FE7
:10099000803258F080E00E94CF0582EE0E94F2057E
:1009A00081E00E94CF0580E001C08C2FCF91089597
:1009B0000F931F93CF938C0180E00E94CF058BE2B1
:1009C0000E94F205C0E007C0F801EC0FF11D808124
:1009D0000E94F205CF5FC330B8F381E00E94CF05DB
:0809E000CF911F910F910895C2
:1009E8002F923F924F925F926F927F928F929F9237
:1009F800AF92BF92CF92DF92EF92FF920F931F9325
:100A0800CF93DF93CDB7DEB7CA1BDB0B0FB6F894D5
:080A1800DEBF0FBECDBF099443
:100A2000CF92DF92EF926B01E82EA82FCB014115F8
:100A3000510531F48C199D09EF90DF90CF90089506
:100A4000FC012491A7FD20812223A1F30196A11D81
:060A500041505109ECCFFA
:100A56002A88398848885F846E847D848C849B8448
:100A6600AA84B984C884DF80EE80FD800C811B8156
:100A7600AA81B981CE0FD11D0FB6F894DEBF0FBE85
:060A8600CDBFED01089553
:100A8C0080912701882399F06FE780E00E9474051C
:100A9C0062E082E00E9474058FE891E00197F1F723
:100AAC0000C0000081E00E949C051092270108956F
:100ABC00CF92DF92EF926B01E82E06C09FEFC91A1E
:100ACC00D90AE90A0E94EB05F6018491E7FC8081C2
:0C0ADC008111F4CFEF90DF90CF900895CF
:100AE800CF93DF93C82FD62F80E00E94CF058C2F9D
:100AF8008F7180620E94F2058D2F0E94F20581E0BD
:0A0B08000E94CF05DF91CF91089500
:100B1200CF93C82F80E00E94CF058C2F8F710E9447
:100B2200F20580E00E94F205C82F81E00E94CF0505
:060B32008C2FCF91089505
:100B3800882341F085B1816085B985E38A95F1F70D
:0C0B48000000089585B18E7F85B90895E6
:100B5400CF9380E00E94CF058FEF0E94F205C82F4B
:0C0B640081E00E94CF058C2FCF910895F6
:100B70001092C50087E68093C40086E08093C2008F
:080B800088E18093C100089593
:100B880084B18E6284B984B18F7E84B980E58CBDCE
:060B980081E08DBD08950F
:100B9E00882321F085B1846085B9089585B18B7F56
:040BAE0085B9089568
:100BB20087E10E94890580FF02C080E0089581E0FC
:020BC200089594
:100BC4000E94AA0586FD03C00E94D905089581E00C
:020BD400089582
:0E0BD6009091C00095FFFCCF8093C60008955B
:0C0BE4008EBD0DB407FEFDCF8EB5089548
:040BF0000C94000061
:030BF400051020C9
:030BF700201005C6
:00000001FF
