:100000000C9440000C9473020C9473020C947302D1
:100010000C9473020C9473020C9473020C9473028C
:100020000C9473020C9473020C9473020C9473027C
:100030000C9473020C9473020C9473020C9473026C
:100040000C9473020C9473020C9473020C9473025C
:100050000C9473020C9473020C9473020C9473024C
:100060000C9473020C9473020100050880050805C6
:100070000E0004EA050E050F80050F051000010DA6
:1000800011241FBECFEFD8E0DEBFCDBFE8E6F0E021
:1000900040E017C0B591A59135912591059107FDD7
:1000A0000CC095918591EF01F92FE82F05900D92E5
:1000B000A217B307D9F7FE0104C01D92A217B30718
:1000C000E1F7E038F40731F70E94D1000C946800A2
:0400D000F894FFCFD2
:1000D4001B5B324A0D0A000D0A4E52463234204E42
:1000E4006F7420636F6E6E656374656421000D0A1E
:1000F400526561647920746F207265636569766501
:090104002E000D0A6C6F6F7000F3
:01010D0002EF
:10010E000F931F93CF93DF938C01EB0184B1856026
:10011E0084B980E00E94FE0181E00E944A028FE1D4
:10012E009EE40197F1F700C0000061E083E00E94B9
:10013E00E901C8010E941801CE010E949F0162E0F0
:10014E0085E00E94E90163E08CE10E94E90164E030
:10015E008DE10E94E9016EE086E00E94E90163E014
:10016E0081E00E94E9016FE784E00E94E90184E0EA
:10017E000E9412028F3741F460E787E00E94E90186
:10018E000E94BB0180E001C081E0DF91CF911F9101
:04019E000F91089520
:1001A2000FB6F894A89580916000886180936000F2
:1001B200109260000FBE0E94330264ED70E080E096
:1001C2000E94D3010E943F026BE075E088E095E057
:1001D2000E948700811123C062EF70E080E00E94DC
:1001E200D3010E945D028823E1F36EE075E088EEA0
:1001F20094E00E944E018091070520910E0591E046
:100202008F3109F090E081E0203209F080E089230B
:1002120041F366E071E080E00E94D301E2CF6BED32
:0E02220070E080E00E94D3018FEF9FEF0895FF
:100230000F931F93CF938C0180E00E944A0280E3CA
:100240000E946D02C0E007C0F801EC0FF11D808133
:100250000E946D02CF5FC330B8F381E00E944A0272
:100260008FE891E00197F1F700C0000080E00E9464
:100270004A028AE20E946D02C0E007C0F801EC0F5A
:10028000F11D80810E946D02CF5FC330B8F381E021
:0C0290000E944A02CF911F910F91089527
:10029C00CF92DF92EF92FF920F931F93CF936C014B
:1002AC007B0160E487E00E94E9010E947F01F70175
:1002BC00808380E00E944A0281E60E946D02C0E0C9
:1002CC0009C086010C0F111D80E00E946D02F8011F
:1002DC008083CF5FF7018081C81798F381E00E947B
:1002EC004A02CF911F910F91FF90EF90DF90CF902A
:0202FC00089563
:1002FE00CF9380E00E944A0280E60E946D0280E069
:10030E000E946D02C82F81E00E944A028FEF8C0F6F
:10031E00803258F080E00E944A0282EE0E946D0206
:10032E0081E00E944A0280E001C08C2FCF91089597
:10033E000F931F93CF938C0180E00E944A028BE2B1
:10034E000E946D02C0E007C0F801EC0FF11D808124
:10035E000E946D02CF5FC330B8F381E00E944A0263
:08036E00CF911F910F9108953A
:1003760080910F05882399F06FE780E00E94E901DC
:1003860062E082E00E94E9018FE891E00197F1F7CF
:1003960000C0000081E00E94FE0110920F05089542
:1003A600CF92DF92EF926B01E82E06C09FEFC91A3B
:1003B600D90AE90A0E946602F6018491E7FC808167
:0C03C6008111F4CFEF90DF90CF900895EC
:1003D200CF93DF93C82FD62F80E00E944A028C2F42
:1003E2008F7180620E946D028D2F0E946D0281E0EA
:0A03F2000E944A02DF91CF910895A6
:1003FC00882341F085B1816085B985E38A95F1F751
:10040C00000008958FE193E00197F1F700C0000020
:08041C0085B18E7F85B90895BA
:10042400CF93C82F80E00E944A028C2F8F710E94C4
:100434006D0280E00E946D02C82F81E00E944A0292
:060444008C2FCF910895FA
:10044A00CF9380E00E944A028FEF0E946D02C82F6C
:0C045A0081E00E944A028C2FCF9108958F
:100466001092C50087E68093C40086E08093C200A0
:0804760088E18093C1000895A4
:10047E0084B18E6284B984B18F7E84B980E58CBDDF
:06048E0081E08DBD089520
:10049400882321F085B1846085B9089585B18B7F67
:0404A40085B9089579
:1004A80087E10E94120280FF02C080E0089581E087
:0204B8000895A5
:1004BA000E94250286FD03C00E945402089581E02D
:0204CA00089593
:0E04CC009091C00095FFFCCF8093C60008956C
:0C04DA008EBD0DB407FEFDCF8EB5089559
:0404E6000C94000072
:0304EA00051020DA
:0304ED00201005D7
:00000001FF
