:100000000C943A000C9402060C9402060C9402061E
:100010000C9402060C9402060C9402060C94020640
:100020000C9402060C9402060C9402060C94020630
:100030000C9402060C9402060C9402060C94020620
:100040000C9402060C9402060C9402060C94020610
:100050000C9402060C9402060C9402060C94020600
:100060000C9402060C94020601000120800120017C
:1000700026000C0811241FBECFEFD8E0DEBFCDBF95
:10008000E8E6F0E040E017C0B591A59135912591E3
:10009000059107FD0CC095918591EF01F92FE82F8F
:1000A00005900D92A217B307D9F7FE0104C01D9267
:1000B000A217B307E1F7E437F40731F70E94C00253
:0800C0000C946200F894FFCFDC
:1000C8000D0A4E52463234204E6F7420636F6E6EA6
:1000D800656374656421000D0A5265616479207452
:1000E8006F207472616E736D6974000D0A25640067
:1000F8000D0A6661696C6564000D0A6E6F206661A1
:04010800696C7300AB
:10010C000D0A6C656E3A2564000D0A000D0A4669ED
:10011C00666F206861732064617461000D0A44612C
:0C012C007461207265636569766564008B
:100138002F923F924F926F927F928F929F92AF929F
:10014800BF92CF92DF92EF92FF920F931F93CF93BC
:10015800DF93CDB7DEB762970FB6F894DEBF0FBE58
:10016800CDBF6C013A01862E7901FC0110861782F9
:10017800848181FFE7C19E012F5F3F4F3D872C8718
:10018800C901A0E8888B998BAA8B9FE3992EF3016C
:10019800849187FC8081882309F4D0C1482D93017C
:1001A8002F5F3F4F4F4F853219F03901842E0AC017
:1001B800F901849147FD808192E0690E711C811CD0
:1001C800853229F4B60190E00E94F603E0CFB12C05
:1001D80000E010E01032A0F48B3269F030F4803285
:1001E80059F0833269F410612CC08D3239F08033B4
:1001F80039F4116026C01260146023C0186021C051
:1002080017FD29C090ED980F9A3078F416FF06C0B4
:10021800AAE0BA9E900D1124B92E13C0EAE00E9FF1
:10022800900D1124092F10620CC08E3221F416FD96
:1002380085C1106406C08C3611F4106802C0883677
:1002480051F4F301849187FC8081FFEF6F1A7F0AD4
:100258008F0A8111BFCF982F9F7D9554933028F432
:1002680024E0E20EF11C99820FC0833631F0833707
:1002780091F0833509F063C027C0F7018081898335
:1002880097012E5F3F4F7901288839884A88AA2428
:10029800A394B12C17C0A7014D5F5F4F5F874E87AE
:1002A800F70120803180428016FF03C04B2D50E0BB
:1002B80002C04FEF5FEF842DB1010E941F055C0162
:1002C800EE84FF841F7718C097012D5F3F4F3F874B
:1002D8002E87F70120803180428016FF03C04B2D06
:1002E80050E002C04FEF5FEF842DB1010E941F055F
:1002F8005C011068EE84FF8413FD1DC0802F90E020
:10030800A816B906C0F4B60180E290E00E94F60390
:100318000150F4CFF101849147FC8081FFEF2F1A3F
:100328003F0A4F0AB60190E00E94F60301110150FE
:1003380021E0A21AB108A114B10461F7F5C084360E
:1003480011F0893671F5F70117FF08C060817181D6
:100358008281938197012C5F3F4F09C06081718131
:10036800072E000C880B990B97012E5F3F4F7901E0
:100378001F76312E97FF0AC09095809570956195EC
:100388007F4F8F4F9F4F312F3068332E2AE030E058
:10039800AE014F5F5F4F0E944E03482E4C85441AB2
:1003A8004AC0853729F41F7EA12E2AE030E025C0F7
:1003B800512F597FA52E8F36C1F018F4883579F062
:1003C800BDC0803719F0883721F0B8C0852F80610B
:1003D800A82EA4FE0DC09A2D9460A92E09C014FF62
:1003E8000AC0A52FA660AA2E06C028E030E005C0E6
:1003F80020E130E002C020E132E0F701A7FE08C0AA
:100408006081718182819381A7014C5F5F4F07C032
:100418006081718180E090E0A7014E5F5F4F7A01B3
:10042800AE014F5F5F4F0E944E03482E5C85451A10
:100438008A2D8F77382E36FE0DC0932D9E7FA92EDC
:100448004B1458F434FE0BC032FC09C0A32DAE7E09
:10045800AA2E05C0142DA32C03C0142D01C01B2DDA
:10046800A4FE0EC0FE01E40DF11D8081803321F44D
:10047800EA2DE97EAE2E08C0A2FE05C01E5F04C0AC
:100488008A2D867809F01F5FA3FC11C0A0FE06C064
:10049800101788F4040DB02EB11A0EC0101760F4AE
:1004A800B60180E290E00E94F6031F5FF7CF1017B5
:1004B80018F4011B02C0B42C00E0A4FE10C0B60161
:1004C80080E390E00E94F603A2FE17C0A1FC03C0DF
:1004D80088E790E002C088E590E0B6010CC08A2D5C
:1004E800867859F0A1FE02C08BE201C080E2A7FC29
:1004F8008DE2B60190E00E94F6034B1438F4B60181
:1005080080E390E00E94F603BA94F7CF4A94E1E0C2
:10051800F0E0EC0FFD1FE40DF11D8081B60190E0C5
:100528000E94F6034110F2CF002309F430CEB60141
:1005380080E290E00E94F6030150F6CFF601878131
:10054800908502C08FEF9FEF62960FB6F894DEBFDA
:100558000FBECDBFDF91CF911F910F91FF90EF900C
:10056800DF90CF90BF90AF909F908F907F906F90CB
:080578004F903F902F90089571
:10058000EF92FF920F931F93CF93DF93CDB7DEB718
:1005900064970FB6F894DEBF0FBECDBF0FB6F894C8
:1005A000A89580916000886180936000109260003F
:1005B0000FBE0E94CD050E94D90540E250E061E6E1
:1005C00070E080E091E00E94F50560E271E083E276
:1005D00091E00E94AC03882341F068EC70E080E079
:1005E0000E9455058FEF9FEF4CC06FED70E080E0EB
:1005F0000E945505E12C81E02FC01F92FF9283EFEE
:1006000090E0A0E0AF939F938F938E010F5F1F4FF9
:100610001F930F930E94C404B80180E80E945505FF
:100620000FB6F894DEBF0FBECDBF80E007C0E3EC8D
:10063000F9E03197F1F700C000008F5F8436B8F31E
:100640006F2D80E091E00E9468040E949904882345
:1006500011F0EE24E3948F2DFF24F394F80E8032F2
:1006600060F2F1E0EF1206C068EF70E080E00E94F7
:10067000550505C061E071E080E00E94550580E00D
:1006800090E064960FB6F894DEBF0FBECDBFDF9149
:0C069000CF911F910F91FF90EF90089503
:10069C00FA01AA27283051F1203181F1E8946F93A7
:1006AC006E7F6E5F7F4F8F4F9F4FAF4FB1E03ED04D
:1006BC00B4E03CD0670F781F891F9A1FA11D680FEB
:1006CC00791F8A1F911DA11D6A0F711D811D911D1E
:1006DC00A11D20D009F468943F912AE0269F112493
:1006EC003019305D3193DEF6CF010895462F4770F7
:1006FC00405D4193B3E00FD0C9F7F6CF462F4F7052
:10070C00405D4A3318F0495D31FD4052419302D0AF
:10071C00A9F7EACFB4E0A695979587957795679555
:10072C00BA95C9F700976105710508959B01AC0155
:10073C000A2E06945795479537952795BA95C9F77C
:0C074C00620F731F841F951FA01D0895ED
:100758000F931F93CF93DF938C01EB0184B18560D6
:1007680084B980E00E94A50581E00E94E4058FE13C
:100778009EE40197F1F700C0000061E083E00E9469
:100788006B05C8010E943204CE010E94E70462E0B2
:1007980085E00E946B0563E08CE10E946B0564E0D4
:1007A8008DE10E946B056EE086E00E946B0563E0B8
:1007B80081E00E946B056FE784E00E946B0584E08E
:1007C8000E9480058F3741F460E787E00E946B053F
:1007D8000E94C10580E001C081E0DF91CF911F91A7
:0407E8000F910895D0
:1007EC000F931F93CF93DF93FB01248121FD03C053
:1007FC008FEF9FEF2CC022FF16C0478150852581BB
:10080C0036814217530744F4A081B1819D012F5FBB
:10081C003F4F318320838C93278130852F5F3F4F4F
:10082C003087278314C08B01EC01FB010184F28516
:10083C00E02D0995892BE1F6D80117968D919C91A5
:10084C001897019618969C938E931797CE01DF916B
:08085C00CF911F910F91089547
:100864000F931F93CF938C0180E00E94E40580E3F3
:100874000E94FC05C0E007C0F801EC0FF11D808167
:100884000E94FC05CF5FC330B8F381E00E94E40509
:100894008FE891E00197F1F700C0000080E00E942A
:1008A400E4058AE20E94FC05C0E007C0F801EC0FF1
:1008B400F11D80810E94FC05CF5FC330B8F381E055
:0C08C4000E94E405CF911F910F91089550
:1008D0000F931F93CF93DF938C01D62F80E00E945C
:1008E000A5050E94930580E00E94E40580EA0E942D
:1008F000FC0565E171E080E00E945505C0E007C09D
:10090000F801EC0FF11D80810E94FC05CF5FCD172F
:10091000B8F365E171E080E00E94550581E00E9436
:10092000E40581E00E94A505DF91CF911F910F9111
:02093000089528
:100932001F93CF93DF930E94B3050E94B305182F34
:100942001072C0E1D7E208C00E94B305182F1072DE
:1009520095E39A95F1F70000112311F080FF04C08E
:1009620084FD02C0219781F760E687E00E946B0553
:100972000E94C105112311F080E001C081E0DF91E6
:06098200CF911F910895C2
:10098800AFE0B0E0EAECF4E00C9411050E891F89A1
:1009980086E08D831A8309838FEF9FE79F838E8379
:1009A8009E01255E3F4F488D598D6A8DCE01019677
:1009B8000E949C00E885F985E00FF11F10822F96B0
:0609C800E4E00C94480578
:1009CE000F931F93CF938C0180E00E94E4058BE27E
:1009DE000E94FC05C0E007C0F801EC0FF11D8081FC
:1009EE000E94FC05CF5FC330B8F381E00E94E4059E
:0809FE00CF911F910F910895A4
:100A06002F923F924F925F926F927F928F929F9218
:100A1600AF92BF92CF92DF92EF92FF920F931F9306
:100A2600CF93DF93CDB7DEB7CA1BDB0B0FB6F894B7
:080A3600DEBF0FBECDBF099425
:100A3E00CF92DF92EF926B01E82EA82FCB014115DA
:100A4E00510531F48C199D09EF90DF90CF900895E8
:100A5E00FC012491A7FD20812223A1F30196A11D63
:060A6E0041505109ECCFDC
:100A74002A88398848885F846E847D848C849B842A
:100A8400AA84B984C884DF80EE80FD800C811B8138
:100A9400AA81B981CE0FD11D0FB6F894DEBF0FBE67
:060AA400CDBFED01089535
:100AAA00CF92DF92EF926B01E82E06C09FEFC91A30
:100ABA00D90AE90A0E94EE05F6018491E7FC8081D1
:0C0ACA008111F4CFEF90DF90CF900895E1
:100AD600CF93DF93C82FD62F80E00E94E4058C2F9A
:100AE6008F7180620E94FC058D2F0E94FC0581E0BB
:0A0AF6000E94E405DF91CF910895FE
:100B0000CF93C82F80E00E94E4058C2F8F710E9444
:100B1000FC0580E00E94FC05C82F81E00E94E405EE
:060B20008C2FCF91089517
:100B26006EE780E00E946B0561E082E00E946B0543
:100B360080E00E94E40581EE0E94FC0581E00E94AF
:040B4600E405089525
:100B4A00882341F085B1816085B985E38A95F1F7FB
:0C0B5A000000089585B18E7F85B90895D4
:100B6600CF9380E00E94E4058FEF0E94FC05C82F1A
:0C0B760081E00E94E4058C2FCF910895CF
:100B82006FE780E00E946B0562E082E00E946B05E5
:080B920081E00E94A505089511
:100B9A001092C50087E68093C40086E08093C20065
:080BAA0088E18093C100089569
:100BB20084B18E6284B984B18F7E84B980E58CBDA4
:060BC20081E08DBD0895E5
:100BC800882321F085B1846085B9089585B18B7F2C
:040BD80085B908953E
:0E0BDC009091C00095FFFCCF8093C600089555
:0E0BEA00DC0101C06D9341505040E0F70895CA
:0C0BF8008EBD0DB407FEFDCF8EB5089534
:040C04000C9400004C
:030C0800051020B4
:030C0B00201005B1
:00000001FF
