:100000003CC000000C945A090C945A090C945A09EB
:100010000C945A090C945A090C945A090C945A09D4
:100020000C945A090C945A090C945A090C949B0983
:100030000C94D4090C945A090C945A090C945A093A
:100040000C945A090C945A090C945A090C945A09A4
:100050000C945A090C945A090C945A090C945A0994
:100060000C945A090C945A090100010C80010C01EE
:100070001C00141F011C0155800011241FBECFEF6E
:10008000D8E0DEBFCDBFE8E6F0E040E017C0B591B4
:10009000A59135912591059107FD0CC0959185910C
:1000A000EF01F92FE82F05900D92A217B307D9F7AA
:1000B000FE0104C01D92A217B307E1F7E937F40768
:0A00C00031F703D000C0F894FFCF21
:1000CA0053D164EC73E180E015D06BEC73E180E00E
:1000DA0011D084B18E6284B980E58CBD23D067E0EB
:1000EA0082E031D080E091E067D080E091E072D088
:0400FA009BD0FECFCA
:1000FE009B01482FF901949147FD9081992379F046
:10010E002F5F3F4F4F4F8091C00085FFFCCF9093E4
:10011E00C600F901949147FD90819111F1CF089598
:10012E0060E074E180E0E4DF209A83E191E02ED17B
:10013E008EE091E023D1289827D169EF73E180E01A
:02014E00D7CF09
:10015000CF93DF93C82FD62F6BED73E180E0CFDF15
:10016000D09307016C2F85E025D160E081E122D199
:100170006091070182E11ED160E083E11BD160E064
:1001800084E118D160E085E115D160E086E112D10B
:1001900066E086E00FD168E080E00CD160E081E0AD
:1001A00009D163E082E006D16FE484E003D160E02E
:1001B0008CE100D10FD169EF73E180E0DF91CF9145
:0201C0009ECFD0
:1001C200FC0181E080838183128284E6838380E163
:0C01D20097E29583848382E3868308957E
:1001DE000F931F93CF938C018AB1806C8AB980E004
:1001EE0003D15F9AF801818181111AC05E98F801DE
:1001FE008381882389F0C0E0FFEF29EF80E0F15082
:10020E0020408040E1F700C000008C2FEDD0CF5F82
:10021E00F8018381C81780F3CF911F910F91089534
:04022E005E9AE5CF20
:100232004F925F926F927F928F92AF92BF92CF92C4
:10024200DF92EF920F931F93CF93DF9300D000D0F2
:10025200CDB7DEB72C011AD28823E9F3F8948EE4E5
:1002620091E039D119821A821B821C8268EB72E1F9
:1002720080E044DFCE0101965C013C0190E8892ECA
:100282000EE411E09BEBC92E92E1D92E90E0E92E0B
:10029200F80181918F011F928F93EF92DF92CF929B
:1002A200BF92AF92F8D0882DB30128DF0FB6F89431
:1002B200DEBF0FBECDBF91E00535190749F790911A
:1002C2004E01F20180819817A1F078940F900F905F
:1002D2000F900F90DF91CF911F910F91EF90DF90D0
:1002E200CF90BF90AF908F907F906F905F904F9024
:1002F200089583EC99E00197F1F700C000008CE0CB
:1003020091E00BD180914F018F3F39F0C20136D17C
:1003120060EC72E180E0F2DED8CF51D164ED72E19F
:1003220080E0ECDE80911D01882379F210E08BEBF6
:10033200C82E82E1D82E80E0E82EE12FF0E0E15EC7
:10034200FE4F80811F928F93EF92DF92CF92BF92E6
:10035200AF92A1D0882DB301D1DE1F5F0FB6F89402
:10036200DEBF0FBECDBF80911D01181730F3ADCF98
:100372001092C50087E68093C40086E08093C20095
:0803820088E18093C100089599
:0C038A00289845E0BC018BE099D196C199
:040396002A9A089502
:10039A00CF93DF93EC0145E0BC018AE08FD145E0C1
:0A03AA00BE0180E1DF91CF9189C10F
:1003B4002A988F7180629DB58EBD0DB407FEFDCF66
:1003C4008EB58DB56EBD0DB407FEFDCF8EB5E1CFF4
:1003D4002A988DB582EE8EBD0DB407FEFDCF8EB585
:1003E400D8DF60E787E0E4DF28986BE080E0E0DFB7
:0203F40066C1E0
:1003F600CF92DF92EF92FF92682F70E080E090E05C
:10040600B7D12AE037ED43E25CE378D124E13EEA56
:1004160047E05FE373D120E030E040E250E46ED184
:1004260020E030E040E250E46BD120E030E44CE9DB
:1004360055E464D120E030E44CE955E461D120E094
:1004460030E040E853E45AD16B017C0120E030E013
:10045600A90158D187FD1BC020E030E04FE753E4E7
:10046600C701B60153D1181684F0C701B60152D19F
:1004760029988DB56EBD0DB407FEFDCF8EB5299AB0
:10048600FF90EF90DF90CF9008956FEFF1CF60E08F
:02049600EFCFA6
:10049800AFE0B0E0E1E5F2E0E5C30E891F8986E050
:1004A8008D831A8309838FEF9FE79F838E839E0135
:1004B800255E3F4F488D598D6A8DCE01019692D1A8
:1004C800E885F985E00FF11F10822F96E4E0AFC3AD
:1004D8002A982DB521E62EBD0DB407FEFDCF2EB509
:1004E80020910701222391F0FC01215030E02F5F79
:1004F8003F4F280F391F80819DB58EBD0DB407FE73
:10050800FDCF8EB58193E217F307A9F740DF60E4CA
:0405180087E04CCF5D
:10051C00CF93DF93D82FC92F2898B0D32A988DB5B5
:10052C0081EE8EBD0DB407FEFDCF8EB52EDF2A9861
:10053C008DB580EA8EBD0DB407FEFDCF8EB5209132
:10054C000701222391F0ED2FFC2F215030E02F5F7B
:10055C003F4F2E0F3F1F81919DB58EBD0DB407FEF1
:10056C00FDCF8EB5E217F307B1F70FDFDF91CF9117
:02057C00A2C01B
:10057E000F931F93CF93DF93EC010EE411E0F8017C
:10058E006181A2D3F8016281CE017DD3F80163812E
:10059E00CE017CD3F80164817581CE017AD3F80146
:1005AE006681CE017AD3CE01DF91CF911F910F914B
:0205BE0077C301
:1005C000CF92DF92EF92FF920F931F93CF93DF931F
:1005D0000091500100931D01202F26952695269508
:1005E000802F877009F04FC020931E01222369F0ED
:1005F000A1E5B1E0E7E4F1E0215030E0285B3E4FB7
:100600008D918193E217F307D9F7002399F1CFE198
:10061000D1E0015010E00F5F1F4FE0E0F0E087E015
:10062000C82ED12CEE24E394F12C2E2F269526955E
:10063000269530E0B901695F7F4FCF014FD3A60106
:10064000481B590BD901A95BBE4F8C9190E09701D3
:10065000042E02C0220F331F0A94E2F78223932351
:1006600002C0959587954A95E2F789933196E017F0
:10067000F107D9F6DF91CF911F910F91FF90EF9085
:0E068000DF90CF9008952F5F20931E01B1CF21
:10068E00CF93DF931F92CDB7DEB752D386FF05C04F
:10069E0081E00F90DF91CF91089541E0BE016F5F31
:1006AE007F4F87E127D38981809581700F90DF91ED
:0406BE00CF9108953B
:0406C200289A0895D5
:1006C6002A988F7180629DB58EBD0DB407FEFDCF51
:1006D6008EB5442391F0FB014150242F30E02F5F6B
:1006E6003F4F260F371F81919DB58EBD0DB407FE76
:0C06F600FDCF8EB5E217F307B1F74ACE36
:040702003BD329C3F9
:040706009BD327C397
:08070A0000D408F481E0089519
:08071200FCD308F48FEF0895F9
:10071A002BD488F09F5790F0B92F9927B751A0F0A2
:10072A00D1F0660F771F881F991F1AF0BA95C9F77B
:10073A0012C0B13081F009D4B1E0089506C4672F20
:10074A00782F8827B85F39F0B93FCCF3869577952B
:10075A006795B395D9F73EF4909580957095619514
:08076A007F4F8F4F9F4F089550
:10077200E89409C097FB3EF4909580957095619539
:100782007F4F8F4F9F4F9923A9F0F92F96E9BB27EF
:100792009395F695879577956795B795F111F8CF6B
:1007A200FAF4BB0F11F460FF1BC06F5F7F4F8F4FD6
:1007B2009F4F16C0882311F096E911C0772321F0CC
:1007C2009EE8872F762F05C0662371F096E8862F64
:1007D20070E060E02AF09A95660F771F881FDAF7BB
:0A07E200880F9695879597F9089502
:1007EC002F923F924F926F927F928F929F92AF92E5
:1007FC00BF92CF92DF92EF92FF920F931F93CF9302
:10080C00DF93CDB7DEB762970FB6F894DEBF0FBE9D
:10081C00CDBF6C013A01862E7901FC01108617823E
:10082C00848181FFDAC19E012F5F3F4F3D872C876A
:10083C00C901A0E8888B998BAA8B9FE3992EF301B1
:10084C00849187FC8081882309F4C3C1482D9301CE
:10085C002F5F3F4F4F4F853219F03901842E0AC05C
:10086C00F901849147FD808192E0690E711C811C15
:10087C00853221F4B60190E090D3E1CFB12C00E0A9
:10088C0010E01032A0F48B3269F030F4803259F061
:10089C00833269F410612CC08D3239F0803339F415
:1008AC00116026C01260146023C0186021C017FDAF
:1008BC0029C090ED980F9A3078F416FF06C0AAE084
:1008CC00BA9E900D1124B92E13C0EAE00E9F900D24
:1008DC001124092F10620CC08E3221F416FD79C13F
:1008EC00106406C08C3611F4106802C0883651F4BE
:1008FC00F301849187FC8081FFEF6F1A7F0A8F0AC6
:10090C008111BFCF982F9F7D9554933028F424E00C
:10091C00E20EF11C99820FC0833631F0833791F0CF
:10092C00833509F05FC026C0F70180818983970168
:10093C002E5F3F4F7901288839884A88AA24A394CE
:10094C00B12C16C0A7014D5F5F4F5F874E87F70133
:10095C0020803180428016FF03C04B2D50E002C036
:10096C004FEF5FEF842DB101B2D35C01EE84FF84B5
:10097C001F7717C097012D5F3F4F3F872E87F701D9
:10098C0020803180428016FF03C04B2D50E002C006
:10099C004FEF5FEF842DB1019AD35C011068EE84A8
:1009AC00FF8413FD1BC0802F90E0A816B906B0F48D
:1009BC00B60180E290E0F1D20150F5CFF1018491C3
:1009CC0047FC8081FFEF2F1A3F0A4F0AB60190E0D7
:1009DC00E4D20111015021E0A21AB108A114B10412
:1009EC0069F7EEC0843611F0893669F5F70117FF07
:1009FC0008C0608171818281938197012C5F3F4F88
:100A0C0009C060817181072E000C880B990B97012E
:100A1C002E5F3F4F79011F76312E97FF0AC09095BC
:100A2C008095709561957F4F8F4F9F4F312F306818
:100A3C00332E2AE030E0AE014F5F5F4FEAD2482EF2
:100A4C004C85441A49C0853729F41F7EA12E2AE013
:100A5C0030E025C0512F597FA52E8F36C1F018F4E8
:100A6C00883579F0B6C0803719F0883721F0B1C0DD
:100A7C00852F8061A82EA4FE0DC09A2D9460A92EFE
:100A8C0009C014FF0AC0A52FA660AA2E06C028E034
:100A9C0030E005C020E130E002C020E132E0F70197
:100AAC00A7FE08C06081718182819381A7014C5F90
:100ABC005F4F07C06081718180E090E0A7014E5FBD
:100ACC005F4F7A01AE014F5F5F4FA3D2482E5C851A
:100ADC00451A8A2D8F77382E36FE0DC0932D9E7FAA
:100AEC00A92E4B1458F434FE0BC032FC09C0A32DB4
:100AFC00AE7EAA2E05C0142DA32C03C0142D01C04C
:100B0C001B2DA4FE0EC0FE01E40DF11D808180336F
:100B1C0021F4EA2DE97EAE2E08C0A2FE05C01E5FB0
:100B2C0004C08A2D867809F01F5FA3FC10C0A0FEBC
:100B3C0006C0101780F4040DB02EB11A0DC010179A
:100B4C0058F4B60180E290E028D21F5FF8CF10175E
:100B5C0018F4011B02C0B42C00E0A4FE0FC0B601B7
:100B6C0080E390E01AD2A2FE16C0A1FC03C088E775
:100B7C0090E002C088E590E0B6010CC08A2D867822
:100B8C0051F0A1FE02C08BE201C080E2A7FC8DE215
:100B9C00B60190E002D24B1430F4B60180E390E041
:100BAC00FCD1BA94F8CF4A94E1E0F0E0EC0FFD1FD1
:100BBC00E40DF11D8081B60190E0EFD14110F3CF2F
:100BCC00002309F43CCEB60180E290E0E6D101505E
:100BDC00F7CFF6018781908502C08FEF9FEF629669
:100BEC000FB6F894DEBF0FBECDBFDF91CF911F9132
:100BFC000F91FF90EF90DF90CF90BF90AF909F90B0
:0E0C0C008F907F906F904F903F902F900895A3
:100C1A002A88398848885F846E847D848C849B8482
:100C2A00AA84B984C884DF80EE80FD800C811B8190
:100C3A00AA81B981CE0FD11D0FB6F894DEBF0FBEBF
:060C4A00CDBFED0108958D
:100C50002F923F924F925F926F927F928F929F92CC
:100C6000AF92BF92CF92DF92EF92FF920F931F93BA
:100C7000CF93DF93CDB7DEB7CA1BDB0B0FB6F8946B
:080C8000DEBF0FBECDBF0994D9
:0C0C880060E787E093DB6AE080E090CB3F
:060C9400FC0162830895DB
:060C9A00FC0163830895D4
:080CA000FC01758364830895D3
:060CA800FC0166830895C3
:100CAE00CF93DF93EC018981811107C05E988B8110
:100CBE009BDBCE01DF91CF9124C25E9A8B8194DBB8
:080CCE00CE01DF91CF911DC2A0
:060CD600FC01618308959A
:100CDC0097FB072E16F4009406D077FD08D090D21F
:100CEC0007FC05D03EF4909581959F4F0895709523
:060CFC0061957F4F089591
:100D02002A988F719DB58EBD0DB407FEFDCF8EB5AD
:100D1200442399F0FB014150242F30E02F5F3F4FD5
:100D2200260F371F80819DB58EBD0DB407FEFDCF06
:0C0D32008EB58193E217F307A9F72CCBD4
:100D3E00CF932A988DB58FEF8EBD0DB407FEFDCFE4
:0A0D4E00CEB522DB8C2FCF91089563
:100D5800092E0394000C11F4882352F0BB0F40F4C1
:100D6800BF2B11F460FF04C06F5F7F4F8F4F9F4F01
:020D78000895DC
:100D7A000AC06BD228F062D218F0952309F055C246
:100D8A005AC21124E3C0E8D0A0F3959FD1F3950F7E
:100D9A0050E0551F629FF001729FBB27F00DB11DF5
:100DAA00639FAA27F00DB11DAA1F649F6627B00D85
:100DBA00A11D661F829F2227B00DA11D621F739F6E
:100DCA00B00DA11D621F839FA00D611D221F749F7C
:100DDA003327A00D611D231F849F600D211D822FC3
:100DEA00762F6A2F11249F5750408AF0E1F088230A
:100DFA004AF0EE0FFF1FBB1F661F771F881F915017
:100E0A005040A9F79E3F510570F00FC29FC05F3F47
:100E1A00ECF3983EDCF3869577956795B795F79549
:100E2A00E7959F5FC1F7FE2B880F911D96958795D1
:040E3A0097F9089587
:100E3E000BC002D240F007D230F021F45F3F19F020
:100E4E00F2C1511181C0F5C185D098F39923C9F330
:100E5E005523B1F3951B550BBB27AA2762177307B2
:100E6E00840738F09F5F5F4F220F331F441FAA1F66
:100E7E00A9F333D00E2E3AF0E0E830D09150504026
:100E8E00E695001CCAF729D0FE2F27D0660F771FD4
:100E9E00881FBB1F261737074807AB07B0E809F0B6
:100EAE00BB0B802DBF01FF2793585F4F2AF09E3F4B
:100EBE00510568F0B8C148C05F3FECF3983EDCF3D3
:100ECE00869577956795B795F7959F5FC9F7880FC4
:100EDE00911D9695879597F90895E1E0660F771F16
:100EEE00881FBB1F621773078407BA0720F0621BA7
:0E0EFE00730B840BBA0BEE1F88F7E095089576
:100F0C00990F0008550FAA0BE0E8FEEF161617060E
:100F1C00E807F907C0F012161306E407F50798F076
:100F2C00621B730B840B950B39F40A2661F0232B8F
:100F3C00242B252B21F408950A2609F4A140A6950B
:080F4C008FEF811D811D089546
:0E0F5400E894BB2766277727CB0197F908950D
:100F620057FD9058440F551F59F05F3F71F0479558
:100F7200880F97FB991F61F09F3F79F0879508953D
:100F8200121613061406551FF2CF4695F1DF08C05C
:100F9200161617061806991FF1CF86957105610579
:040FA2000894089512
:100FA6000F931F93CF93DF93FB01248121FD03C091
:100FB6008FEF9FEF2CC022FF16C0478150852581F9
:100FC60036814217530744F4A081B1819D012F5FFA
:100FD6003F4F318320838C93278130852F5F3F4F8E
:100FE6003087278314C08B01EC01FB010184F28555
:100FF600E02D0995892BE1F6D80117968D919C91E4
:101006001897019618969C938E931797CE01DF91A9
:08101600CF911F910F91089585
:10101E00FA01AA27283051F1203181F1E8946F931B
:10102E006E7F6E5F7F4F8F4F9F4FAF4FB1E03ED0C1
:10103E00B4E03CD0670F781F891F9A1FA11D680F5F
:10104E00791F8A1F911DA11D6A0F711D811D911D92
:10105E00A11D20D009F468943F912AE0269F112407
:10106E003019305D3193DEF6CF010895462F47706B
:10107E00405D4193B3E00FD0C9F7F6CF462F4F70C6
:10108E00405D4A3318F0495D31FD4052419302D024
:10109E00A9F7EACFB4E0A6959795879577956795CA
:1010AE00BA95C9F700976105710508959B01AC01CA
:1010BE000A2E06945795479537952795BA95C9F7F1
:0C10CE00620F731F841F951FA01D089562
:1010DA00CF92DF92EF926B01E82EA82FCB01411538
:1010EA00510531F48C199D09EF90DF90CF90089546
:1010FA00FC012491A7FD20812223A1F30196A11DC1
:06110A0041505109ECCF39
:101110000F931F93CF93DF93EC01F894109280000C
:101120001092810010928500109284008A81813093
:1011300009F45AC008F44DC0823009F041C0CE0114
:10114000B5D09C0140E050E060E074E284EF90E0B4
:1011500088D08901015011091093890000938800FB
:10116000CE01A1D099E2899F812D112482958F70A3
:10117000809F9001819F300D112430930B012093AB
:101180000A01CE0190D064E670E09B01281B310972
:10119000C901A4DD609FC001619F900D709F900DFB
:1011A0001124909309018093080180910801909186
:1011B000090190938B0080938A0086E080936F00F2
:1011C00089E0809381007894DF91CF911F910F91F6
:1011D0000895F8941092800010928100109285007A
:1011E000109284007894ECCFCE0160D09C0140E056
:1011F00050E060E074E284EF90E033D02150310998
:0C120000309389002093880082E0D8CF52
:10120C00AA1BBB1B51E107C0AA1FBB1FA617B70720
:10121C0010F0A61BB70B881F991F5A95A9F780953C
:08122C009095BC01CD0108956D
:0C12340097F99F6780E870E060E0089583
:061240009FEF80EC089511
:0E12460000240A9412161306140605060895D5
:0E12540000240A9416161706180609060895B7
:10126200A1E21A2EAA1BBB1BFD010DC0AA1FBB1FA8
:10127200EE1FFF1FA217B307E407F50720F0A21B1A
:10128200B30BE40BF50B661F771F881F991F1A9487
:1012920069F760957095809590959B01AC01BD01B1
:0412A200CF010895DB
:0612A600FC0186810895A1
:0812AC00FC0184819581089585
:0412B4000C94000096
:1012B8000D0A0025642C20000D0A436F6D6D616EC8
:1012C800642072656365697665642E000D426974F1
:1012D80073747265616D2072656365697665642EE5
:0312E8000D0A00EC
:1012EB000020911C0130911D01231768F010921CF6
:1012FB000120E030E0FC018281F901E15EFE4F82CA
:10130B003069F0808108952F5F20931C0130E0FC41
:10131B00018281F901E15EFE4F823099F781E09005
:0B132B0081911101C0089580E0089539
:101336001F920F920FB60F9211242F933F934F9344
:101346005F936F937F938F939F93AF93BF93EF9327
:10135600FF9380E091E0C7DFE82FF0E0EE0FFF1F7C
:10136600E85EFE4F0190F081E02D208131813093BF
:101376008B0020938A00811112C05E98FF91EF9135
:10138600BF91AF919F918F917F916F915F914F9197
:101396003F912F910F900FBE0F901F9018955E9A58
:0213A600EDCF89
:1013A8001F920F920FB60F9211248F938BB15E98F4
:0C13B8008F910F900FBE0F901F901895A2
:1013C4000A1B5B324A0D000D0A496E697469616C2F
:0713D400697A696E672E00C3
:1013DB000D0A436F6E6669677572696E67206E7270
:1013EB00663234206D6F64756C652E2E2E00204492
:1013FB006F6E6521000D0A496E697469616C697ABB
:10140B00696E67206E72663234206D6F64756C6521
:04141B002E2E2E0043
:02141F00014189
:0A1421004D41535452534C415645BF
:04142B000A010801A9
:00000001FF
