:1079000000D01F92CDB7DEB7F89411248FED98E028
:107910009EBF8DBFCDB7DEB784B714BE83FF18C03E
:107920004091EC085091ED086091EE087091EF08DD
:107930004F3E5E4B6D4A7E4D59F41092EC0810920A
:10794000ED081092EE081092EF088091EB08EFD24C
:107950008093EB088FEE9EEBADEABEED8093EC08D2
:107960009093ED08A093EE08B093EF0811E0A0E02B
:10797000B1E0E2E4FFE702C005900D92A630B10746
:10798000D9F711E0A6E0B1E001C01D92AC34B10717
:10799000E1F78AB183608AB98BB18C7F8BB982E0C1
:1079A0008093C00088E18093C10086E08093C2008C
:1079B00080E18093C4008091020190910301A09125
:1079C000040189839A83AB8384B1886284B9249843
:1079D000229A1CBC80E58CBD81E08DBD8DB58EB535
:1079E000209A229A80E991E01AD1289824D180E146
:1079F00097E215D161E083E035D11FD183E005D155
:107A000080E003D1182F17D11130E9F462E085E04E
:107A100029D163E08CE126D164E08DE123D16EE0D1
:107A200086E020D163E081E01DD16FE784E01AD1C8
:107A300060E787E017D110934A01BE016F5F7F4F67
:107A40008BE0FDD01CD188E1809360008EE08093B4
:107A5000600000E010E028E1A22E38E0932E882498
:107A6000839445E0742E51E1652E63E0B62EA7D1D4
:107A7000813471F4A4D1F82E47D282E8F816F9F0D7
:107A800091E8F91202C085E001C083E009D1BAC0D3
:107A9000823411F484E103C0853419F485E03AD2CC
:107AA000B1C0853541F48BD1082F10E088D1182B57
:107AB000000F111FA6C0863521F484E02BD280E090
:107AC000E5CF843609F063C07AD179D1E82E77D139
:107AD000582EE6E48E1307C00115F0E71F0718F4CF
:107AE000F801B7BEE895FE2C80E8C82EDD24D394BB
:107AF00066D1F60181936F01FA94F110F9CFEA94FF
:107B0000F12CFFE7EF1AFEEFFF0A26E4521227C01E
:107B1000011580E7180718F0F801B7BEE895F4D111
:107B200007B600FCFDCFF801A0E8B1E08C911196FA
:107B30002C91119790E0922B0C0187BEE8951124AF
:107B400032961296A11522E0B20781F7F80177BEAE
:107B5000E89507B600FCFDCF67BEE89553C0F5E495
:107B60005F1250C0D1D1C801E0E8F1E0EE1609F48F
:107B700049C0A89541919C012F5F3F4FF999FECFD5
:107B800092BD81BD40BDFA9AF99AC901EFCF843701
:107B900049F515D114D1D82E12D1F82EB5D126E43D
:107BA000F21208C0F80185918F017AD0DA94D110D1
:107BB000F9CF28C085E4F81225C0C801CD2CCC200F
:107BC00071F07C01EFEFEE1AFE0AF999FECF92BD3B
:107BD00081BDF89A80B564D0CA94C701F0CF0D0D6D
:107BE000111D10C0853739F48FD18EE159D085E948
:107BF00057D08FE04BCF813521F4A0926000909256
:107C0000600082D180E14CD032CF8EBD8FEF8150A9
:107C10000DB407FC02C08111FACF8EB5089501970B
:107C200048F000000000000000000000000000001C
:107C3000A895F5CF08952A9A08952A9808951F9334
:107C4000CF93DF93182FEB01F8DF812F8062DDDF08
:107C50008881DBDF8981D9DF8A81D7DFDF91CF910E
:107C60001F91E9CFCF93DF93D82FC62FE6DF8D2F5B
:107C70008062CBDF8C2FC9DFDF91CF91DCCF809189
:107C8000490181110CC06FE7EDDF62E082E0EADFBD
:107C900084E190E0C4DF289A81E08093490108954F
:107CA000EF92FF920F931F93CF93DF9390914B012D
:107CB000992309F477C0E091480191E09E0F9093D9
:107CC0004801F0E0E85DFE4F8083803121F0809133
:107CD000010198136DC0D0E8FF24F394D15009F44A
:107CE00058C080E49FE19BDFC09148018091490129
:107CF000882331F080E991E092DF2898F0924901E1
:107D00006EE780E0AFDF61E082E0ACDF96DF81EE1E
:107D10007CDF91DF92DF80EA78DF08E211E0CC239C
:107D200031F0F80181918F0170DFC150F8CF83DF0E
:107D300084E190E074DF289A80DF8FEF66DFC82F40
:107D40007ADF80E991E06BDF289800E117E2FC2FF1
:107D5000F072EF2EC5FF02C0C0FF0EC0C4FD0CC004
:107D60000150110949F084E190E059DF66DF8FEF9F
:107D70004CDFC82F60DFEBCF60E387E073DF8091DB
:107D80004901882319F01092490179DFEE2009F4A6
:107D9000A5CF81E080934801809128018F5F809377
:107DA000280106C09091C00095FFFCCF8093C600CB
:107DB000DF91CF911F910F91FF90EF900895FF9267
:107DC0000F931F93CF93DF93D1E085E0F82E80913E
:107DD0004A019091C00097FF08C08091C00084FDC7
:107DE00001C0A8958091C60075C0882391F3809149
:107DF00027018823B9F0A8958091270181115BC0E4
:107E000060E487E02FDF19DF80E6FFDE80E0FDDE43
:107E1000C82F11DFC093270110DF81E6F6DE07E0EF
:107E200011E00AC00ADF87E1F0DE80E0EEDEC82F55
:107E300002DFC0FFE0CFCBCFCC2339F080E0E5DE1E
:107E4000F80181938F01C150F7CFF5DED093060181
:107E500080914B0181111CC0809127018430B0F0CA
:107E600067E071E080E1EBDE67E071E08AE0E7DE89
:107E700080910A01809301018091270184508093B1
:107E80002701F0920601D0934B0102C01092270106
:107E900080912701882309F49ACF909107012091BE
:107EA0000001921303C01092270191CF909300011B
:107EB000815080932701E091060181E08E0F80932D
:107EC0000601F0E0E95FFE4F80819091270191501B
:107ED00090932701DF91CF911F910F91FF9008950B
:107EE00080914901882321F080E991E098DE28986B
:107EF0006CE780E0B7DE1092490188E18093600072
:107F000088E080936000FFCF5ADF803209F0E8DF1D
:107F100084E1C6CECF93C82F52DFC150E9F7CF918D
:107F2000F3CFE0E6F0E098E1908380830895E0E607
:107F3000F0E098E1908398E29083282EEE27FF27C7
:027F40000994A2
:067F4200FF204C4D310050
:027FFE0000057C
:040000030000790080
:00000001FF
