:100000000C943D000C9413060C9413060C941306E8
:100010000C9413060C9413060C9413060C941306FC
:100020000C9413060C9413060C9413060C941306EC
:100030000C9413060C9413060C9413060C941306DC
:100040000C9413060C9413060C9413060C941306CC
:100050000C9413060C9413060C9413060C941306BC
:100060000C9413060C941306010002118002110275
:100070001B000C2A021B0223800011241FBECFEF9D
:10008000D8E0DEBFCDBFE8E6F0E040E017C0B591B4
:10009000A59135912591059107FD0CC0959185910C
:1000A000EF01F92FE82F05900D92A217B307D9F7AA
:1000B000FE0104C01D92A217B307E1F7E937F40768
:0E00C00031F70E9444020C946500F894FFCFC3
:1000CE000A1B5B324A0D000D0A496E697469616C38
:1000DE00697A696E67204D41535445522E000D0AC0
:1000EE000A57616974696E6720636F6D6D616E6426
:1000FE0020696E7075742E000D0A282449442C5305
:10010E00746174652C4D6F64652C496E74656E73E5
:10011E006974792C467265712C447574792C2A2970
:07012E000D0A0A000D0A0092
:100135000D0A436F6E6669677572696E67206E7228
:10014500663234206D6F64756C652E2E2E0020444A
:100155006F6E6521000D0A496E697469616C697A73
:10016500696E67206E72663234206D6F64756C65DA
:040175002E2E2E00FC
:100179000D0A53656E64696E6720436F6D6D616E1C
:10018900642E2E2E200053656E74210D0A000D0A6F
:1001990053656E64696E6720626974737472656110
:0301A9006D2E00B8
:1001AC002F923F924F925F926F927F928F92AF926B
:1001BC00BF92CF92DF92EF920F931F93CF93DF9367
:1001CC0000D000D000D0CDB7DEB73B01882E5A014D
:1001DC0019014115510521F0FA0160837183828365
:1001EC002114310429F0C1010297839708F01AC138
:1001FC00E82C6301FFEFCF1ADF0AEF0AF301149129
:10020C0087FC1081812F90E00E94C0054C2D3D2D64
:10021C002E2D892B19F036018E2CEACF1D3269F464
:10022C00E82C630152E0C50ED11CE11CE42FF32F26
:10023C00149127FD108101E00EC01B3259F4E82CFB
:10024C00630182E0C80ED11CE11CE42FF32F149142
:10025C0027FD108100E02114310409F190E12916E9
:10026C00310429F43FC010E32114310421F1F8E0EA
:10027C002F16310401F154F432E02316310421F528
:10028C00412C512C612C50E4752E4BC04AE02416A5
:10029C00310439F050E125163104B1F43DC010336E
:1002AC0019F13AE0232E312C4CEC442E542C642CB6
:1002BC004CE0742E36C098E0292E312C412C512C58
:1002CC00612C20E1722E2DC060E070E080E090E89F
:1002DC009101032C000C440B550B0E946104290165
:1002EC003A011FC01033C1F4F6018491E7FC808100
:1002FC008F7D883509F0B7CFAE2DC6010196A11DB3
:10030C00FC011491A7FD1081E2E0CE0ED11CE11C82
:10031C00026060E1262E312C412C512C612C88E09E
:10032C00782EA0E060E070E0CB019101032C000C72
:10033C00440B550B29833A834B835C83E0EDE10F2F
:10034C00EA3060F02FEB210F2A3110F4E9EC05C0F4
:10035C002FE9210F2A3150F5E9EAE10F2E2F30E079
:10036C00221533051CF5A7FD18C04616570668065E
:10037C00790680F029813A814B815C810E946D0560
:10038C006E0F711D811D911D61307105810530E865
:10039C00930710F0AFEF01C0A1E0F6011491E7FC58
:1003AC0010814FEFC41AD40AE40AC8CF202F217051
:1003BC00A114B104B1F0AA2349F051E0C51AD10837
:1003CC00E108F501C082D182E2820BC001FF1DC0A1
:1003DC00F2E0CF1AD108E108F501C082D182E282A5
:1003EC0014C0A7FF12C0222329F060E070E080E067
:1003FC0090E804C06FEF7FEF8FEF9FE722E230E0D1
:10040C00309302012093010109C0222381F09095C1
:10041C008095709561957F4F8F4F9F4F462F372F4B
:10042C00282F12C040E030E020E090E00DC097FF94
:10043C00F5CF82E290E090930201809301016FEF7F
:10044C007FEF8FEF9FE7EACF642F732F822F2696D3
:10045C000FB6F894DEBF0FBECDBFDF91CF911F91C9
:10046C000F91EF90DF90CF90BF90AF908F907F90D7
:0C047C006F905F904F903F902F9008957C
:10048800CF93DF93CDB7DEB72F970FB6F894DEBFC3
:100498000FBECDBF0E948C056EEC70E080E00E941C
:1004A800140565ED70E080E00E94140584B18E6249
:1004B80084B980E58CBD0E94DD0467E082E00E947B
:1004C80080036CEE70E080E00E94140566E071E045
:1004D80080E00E9414057894F12CD12C00E0E12CE6
:1004E8000E94D805182F0E94D1051A3209F483C03A
:1004F80030F41D3009F48FC0143291F092C01234D8
:1005080029F0123619F01C32B9F08BC080EFE3E005
:10051800F1E0DF011D928A95E9F7F12CD12CE0CFAB
:10052800FE01389688E0DF011D928A95E9F7FF24DD
:10053800F39400E0E12CD4CF023021F128F4002319
:1005480049F0013099F04DC00430A1F138F105307F
:10055800E9F147C0BE01685F7F4F80E80E94EE0561
:10056800682FCE0101960E94F5053BC0BE01685F69
:100578007F4F80E80E94EE05682FCE0101960E9409
:10058800FB052FC0BE01685F7F4F80E80E94EE0523
:10059800682FCE0101960E94010623C0BE01685F44
:1005A8007F4F80E80E94EE05682FCE0101960E94D9
:1005B800070617C0BE01685F7F4F80E80E94EE05FE
:1005C800BC01CE0101960E94EA050BC0BE01685F1E
:1005D8007F4F80E80E94EE05682FCE0101960E94A9
:1005E8000D06FE01389688E0DF011D928A95E9F72D
:1005F8000F5FE12C75CFF11009C0AE014F5F5F4F5F
:100608006D2D83E091E00E94C6036ACFCE0101966A
:100618000E94830465CF62E371E080E00E941405C4
:100628005FCFF11008C0ED2DF0E0ED5FFE4F1053E5
:100638001083D39455CFE8E0F0E0EC0FFD1FEE0DEA
:08064800F11D1083E3944CCF77
:10065000FC0140E020E02AC050E0440F551FDF01BC
:10066000A20FB11D8C91482B95E2299F312D1124A9
:10067000922F931B9695930F96959695392F330F3E
:10068000330F330F391B231310C0222371F0A22F15
:10069000A695A695A695B0E0AD50BE4F4C9380911F
:1006A00022028F5F8093220240E02F5F2617A0F284
:1006B00085E2289F912D1124822F891B8695890F11
:1006C00086958695982F990F990F990F981B291742
:1006D000B1F0E22FE695E695E695F0E0277088E028
:1006E00090E0821B9109ED50FE4F01C0440F8A95A6
:1006F000EAF74083809122028F5F8093220208955F
:10070000CF93DF93C82FD62F65E371E080E00E947E
:100710001405D09300016C2F85E00E94F90460E07D
:1007200081E10E94F9046091000182E10E94F904D4
:1007300060E083E10E94F90460E084E10E94F90432
:1007400060E085E10E94F90460E086E10E94F9041E
:100750006EE086E00E94F90468E080E00E94F904FF
:1007600060E081E00E94F90463E082E00E94F90405
:1007700060E08CE10E94F9040E94C10463E571E02D
:0C07800080E00E941405DF91CF910895E5
:10078C00EF92FF920F931F93CF937C01C62F8A0198
:10079C0067E971E080E00E9414056C2FC7010E948C
:1007AC002803EBE1F2E087E0DF011D928A95E9F77F
:1007BC00D8018C9180838FEF8183C28343E009C081
:1007CC00F901E051FE4F8081F901E55EFD4F808318
:1007DC004F5F242F30E08091220290E0880F991F08
:1007EC00281739076CF38BE192E00E9434040E94C5
:1007FC00C9058111FCCFCF911F910F91FF90EF9004
:02080C0008954D
:10080E000F931F93CF93DF938C01CBE1D2E087E060
:10081E00FE0111928A95E9F7C8010E94F2058883BC
:10082E00C8010E94F8058983C8010E94FE058A83CB
:10083E00C8010E9404068B83C8010E94E6058C83C2
:10084E00C8010E94E6059D83C8010E940A068E8398
:0A085E00DF91CF911F910F910895D3
:10086800CF93DF93EC0180E00E94A3050E94B705B7
:1008780080E00E94AD058DB581EE8EBD0DB407FEFA
:10088800FDCF8EB581E00E94AD0580E00E94AD05E8
:100898008DB580EA8EBD0DB407FEFDCF8EB5609193
:1008A8000001CE010E942A0581E00E94AD0581E089
:0A08B8000E94A305DF91CF9108957F
:1008C200A1E21A2EAA1BBB1BFD010DC0AA1FBB1F52
:1008D200EE1FFF1FA217B307E407F50720F0A21BC4
:1008E200B30BE40BF50B661F771F881F991F1A9431
:1008F20069F760957095809590959B01AC01BD015B
:04090200CF01089584
:10090600CF93DF93EC0169E771E080E00E94140564
:10091600CE010E940704C0E009C08BE192E00E946C
:1009260034040E94C9058111FCCFCF5FCA30A8F3F9
:100936006FE871E080E00E941405DF91CF91089581
:100946000F931F93CF93DF93C82F8B01D42F80E093
:100956000E94AD05CF71C0628DB5CEBD0DB407FE48
:10096600FDCF8EB56D2FC8010E942A0581E00E9439
:0C097600AD05DF91CF911F910F91089506
:1009820080E00E94AD058DB582EE8EBD0DB407FEEE
:10099200FDCF8EB581E00E94AD0560E787E00E9441
:1009A200F90480E00E94A3056BE080E00E94F90454
:0809B20081E00E94A3050895F5
:1009BA006AE571E080E00E94140584B1816084B91F
:1009CA0081E192E00E945D0586E192E00E944C0579
:1009DA0080E00E94A30581E00E94AD0563E571E015
:0809EA0080E00E94140508954D
:1009F200CF93DF93C82FD62F80E00E94AD05CF7131
:100A0200C0628DB5CEBD0DB407FEFDCF8EB58DB5DE
:100A1200DEBD0DB407FEFDCF8EB581E00E94AD05AF
:060A2200DF91CF91089561
:100A2800CF92DF92EF926B01E82E06C09FEFC91AB2
:100A3800D90AE90A0E94D105F6018491E7FC808170
:0C0A48008111F4CFEF90DF90CF90089563
:100A5400AC0190E00BC0FA01E90FF11D20818DB5C6
:100A64002EBD0DB407FEFDCF8EB59F5F961798F38C
:020A74000895E3
:100A7600CF9380E00E94AD058DB58FEF8EBD0DB48E
:100A860007FEFDCFCEB581E00E94AD058C2FCF913C
:020A96000895C1
:100A9800CF93DF93EC0180E00E94A30545E0BE01FF
:100AA8008BE00E94A30481E00E94A305DF91CF910F
:020AB80008959F
:100ABA00CF93DF93EC0145E0BC018AE00E94A304D6
:100ACA0045E0BE0180E10E94A304DF91CF91089521
:100ADA00DB018F939F930E949805BF91AF91A29FCC
:100AEA00800D911DA39F900DB29F900D1124089522
:100AFA00A29FB001B39FC001A39F700D811D112455
:0E0B0A00911DB29F700D811D1124911D089543
:100B18001092C50087E68093C40086E08093C200E7
:080B280088E18093C1000895EB
:100B30000E947D05A59F900DB49F900DA49F800DF0
:060B4000911D112408952F
:100B4600882321F085B1816085B9089585B18E7FAE
:040B560085B90895C0
:100B5A00882321F085B1846085B9089585B18B7F9A
:040B6A0085B90895AC
:100B6E0060E787E00E94F9046AE080E00E94F904E1
:020B7E000895D8
:100B800091110C941006803219F089508550C8F7E5
:020B90000895C6
:100B92000E943B05807311F080E0089581E0089582
:0E0BA2009091C00095FFFCCF8093C60008958F
:0E0BB0008091C0008823E4F78091C60008956C
:0E0BBE002AE030E040E050E00E94D6000895AA
:080BCC00FC018481958108956C
:080BD400FC01758364830895A0
:080BDC000E94DF05CB01089522
:060BE400FC018081089570
:060BEA00FC016083089588
:060BF000FC018181089563
:060BF600FC01618308957B
:060BFC00FC018281089556
:060C0200FC01628308956D
:060C0800FC018381089548
:060C0E00FC016383089560
:060C1400FC018681089539
:060C1A00FC016683089551
:060C2000992788270895C2
:040C26000C9400002A
:0A0C2A004D41535452534C415645BE
:00000001FF
