:10790000CDB7DEB72697DEBFCDBFF89411248FED3B
:1079100098E09EBF8DBFCDB7DEB784B714BE83FF9E
:1079200018C04091EC085091ED086091EE087091FC
:10793000EF084F3E5E4B6D4A7E4D59F41092EC08B5
:107940001092ED081092EE081092EF088091EB086B
:1079500016D18093EB088FEE9EEBADEABEED8093DF
:10796000EC089093ED08A093EE08B093EF0811E0B7
:10797000A0E0B1E0EAECFEE702C005900D92A8306D
:10798000B107D9F711E0A8E0B1E001C01D92A8301D
:10799000B107E1F78AB183608AB98BB18C7F8BB96B
:1079A0001092C50080E18093C40086E08093C200FD
:1079B00018E11093C10082E08093C0008091010122
:1079C00090910201A09103018C839D83AE838091ED
:1079D000040190910501A091060189839A83AB83EC
:1079E0006BD2BE016C5F7F4FCE01019623D2109304
:1079F00060008EE08093600000E010E028E1C22E7D
:107A000038E0B32EAA24A39445E0942E51E1852EAC
:107A100063E0D62E92D0813471F48FD0F82E9CD0B2
:107A2000E2E8FE16F9F0F1E8FF1202C085E001C0BD
:107A300083E07CD078C0823411F484E103C08534C3
:107A400019F485E08FD06FC0853541F476D0082FCA
:107A500010E073D0182B000F111F64C0863521F47D
:107A600084E080D080E0E5CF843609F03DC065D069
:107A700064D0782E62D0011580E7180718F4F80159
:107A8000D7BEE89580E8E82EFF24F39456D0F7019E
:107A900081937F017A947110F9CF0115F0E71F07E8
:107AA00018F0F801D7BEE89557D007B600FCFDCF17
:107AB000F801A0E8B1E08C9111962C91119790E01B
:107AC000922B0C01A7BEE895112432961296A115AF
:107AD00082E0B80781F7F80197BEE89507B600FC89
:107AE000FDCF87BEE8951FC0843769F426D025D026
:107AF000F82E23D031D0F80185918F0117D0FA9458
:107B0000F110F9CF10C0853739F426D08EE10ED0B0
:107B100085E90CD08FE08DCF813521F4C0926000D3
:107B2000B092600019D080E101D074CF9091C00074
:107B300095FFFCCF8093C6000895A8958091C00062
:107B400087FFFCCF8091C600089588E18093600094
:107B500088E080936000FFCFF0DF803209F0F5DF2E
:107B600084E1E4CFCF93C82FE8DFC150E9F7CF918C
:107B7000F3CFE0E6F0E098E1908380830895E0E6BB
:107B8000F0E098E190839EE09083282EEE27FF2777
:107B90000994882331F0289A85E38A95F1F700004B
:107BA00008958FE193E00197F1F700C00000289855
:107BB0000895882311F02A9A08952A9808950F931A
:107BC0001F93CF93DF93EC0180E0F3DF8BE26ED164
:107BD0008E010D5F1F4F899169D1C017D107D9F769
:107BE00081E0DF91CF911F910F91E3CFEF92FF9250
:107BF0000F931F93CF93DF93EC0180E0CADF80E007
:107C0000D8DF81EE53D181E0D4DF80E0D2DF80E3A2
:107C10004DD17E0183E0E80EF11C8E01F8018191C7
:107C20008F0144D10E151F05C9F781E0C2DFF5E3CE
:107C3000FA95F1F7000080E0BCDF8AE237D1899144
:107C400035D1EC16FD06D9F781E0DF91CF911F9178
:107C50000F91FF90EF90ADCFCF9380E0AADF8FEF31
:107C600025D1C82F81E0A5DF8C2FCF910895CF9328
:107C700080E09FDF80E61AD180E018D1C82F81E034
:107C800098DF8FEF8C0F803238F080E092DF82EE49
:107C90000DD181E08EDFC0E08C2FCF910895CF937E
:107CA000DF93C82FD62F80E084DF8C2F8F71806206
:107CB000FDD08D2FFBD081E0DF91CF917ACF60E7AF
:107CC00087E0EDCF80910001882381F06FE780E0AD
:107CD000E6DF62E082E0E3DF8FE891E00197F1F711
:107CE00000C0000081E055DF1092000108950F935D
:107CF0001F93CF93B1DFB0DFC82FC07200E117E24E
:107D0000CC2359F080FD09C060E687E0C8DFDADFE8
:107D100081E0CC2379F080E00DC084FDF5CF0150E7
:107D2000110991F399DFC82FC07295E39A95F1F785
:107D30000000E6CFCF911F910F910895CF92DF926F
:107D4000EF92FF920F931F93CF937C018B0160E41E
:107D500087E0A5DF8CDFF801808380E02ADF81E601
:107D6000A5D0C0E0F8018081C81748F46701CC0EA7
:107D7000D11C80E09BD0F6018083CF5FF3CF81E000
:107D8000CF911F910F91FF90EF90DF90CF9011CF87
:107D9000809100018130A9F06EE780E080DF61E032
:107DA00082E07DDF80E005DF81EE80D081E001DFD1
:107DB0008FE891E00197F1F700C0000081E0809327
:107DC000000108950F931F93CF93DF93EC01162FBB
:107DD00080E0DFDEDDDF80E0ECDE80EA67D0CE0130
:107DE000810F911D8C01C017D10719F089915ED0C8
:107DF000FACF81E0DEDE81E0DF91CF911F910F911C
:107E0000C8CECF93C82F80E0D4DE8C2F8F714ED098
:107E100080E04CD0C82F81E0CCDE8C2FCF9108952C
:107E200087E1EFDF80958170089516DF86FFF8CF38
:107E300081E008950F931F93CF93DF938C01EB01A3
:107E400084B1856084B980E0A4DE81E0B2DE8FE198
:107E50009EE40197F1F700C0000061E083E01FDFBE
:107E600083E0CFDF8130E1F4C801C0DECE01A7DEC0
:107E700062E085E014DF63E08CE111DF64E08DE116
:107E80000EDF66E086E00BDF63E081E008DF6FE78E
:107E900084E005DF60E787E002DF14DF80E001C0F7
:107EA00081E0DF91CF911F910F9108958EBD0DB4A8
:107EB00007FEFDCF8EB5089584B18E6284B92498F3
:0A7EC00080E58CBD81E08DBD0895C2
:087ECA00024C4D314D545200F1
:027FFE0000057C
:040000030000790080
:00000001FF
