:10790000CDB7DEB72697DEBFCDBFF89411248FED3B
:1079100098E09EBF8DBFCDB7DEB784B714BE83FF9E
:1079200018C04091EC085091ED086091EE087091FC
:10793000EF084F3E5E4B6D4A7E4D59F41092EC08B5
:107940001092ED081092EE081092EF088091EB086B
:10795000A7D18093EB088FEE9EEBADEABEED80934E
:10796000EC089093ED08A093EE08B093EF0811E0B7
:10797000A0E0B1E0ECEEFFE702C005900D92AA3066
:10798000B107D9F711E0AAE0B1E001C01D92AC3215
:10799000B107E1F78AB183608AB98BB18C7F8BB96B
:1079A0001092C50080E18093C40086E08093C200FD
:1079B00018E11093C10082E08093C0008091030120
:1079C00090910401A09105018C839D83AE838091E9
:1079D000060190910701A091080189839A83AB83E6
:1079E000FCD2219ABE016C5F7F4FCE010196B3D2CB
:1079F000109360008EE08093600000E010E028E1CA
:107A0000C22E38E0B32EAA24A39445E0942E51E16F
:107A1000852E63E0D62EDAD0813471F4D7D0F82EDB
:107A20002CD1E2E8FE16F9F0F1E8FF1202C085E081
:107A300001C083E07CD078C0823411F484E103C0BB
:107A4000853419F485E01FD16FC0853541F4BED06F
:107A5000082F10E0BBD0182B000F111F64C0863513
:107A600021F484E010D180E0E5CF843609F03DC0F8
:107A7000ADD0ACD0782EAAD0011580E7180718F445
:107A8000F801D7BEE89580E8E82EFF24F3949ED055
:107A9000F70181937F017A947110F9CF0115F0E716
:107AA0001F0718F0F801D7BEE895E7D007B600FC2D
:107AB000FDCFF801A0E8B1E08C9111962C911197BF
:107AC00090E0922B0C01A7BEE895112432961296F5
:107AD000A11582E0B80781F7F80197BEE89507B6CF
:107AE00000FCFDCF87BEE8951FC0843769F46ED0D7
:107AF0006DD0F82E6BD0C1D0F80185918F0117D0D1
:107B0000FA94F110F9CF10C0853739F4B6D08EE170
:107B10000ED085E90CD08FE08DCF813521F4C09255
:107B20006000B0926000A9D080E101D074CFEF92E4
:107B3000FF920F931F93CF93DF93CDB7DEB7A0973C
:107B40000FB6F894DEBF0FBECDBF9E012F5F3F4F33
:107B5000790190E2F90111929A95E9F790912B0140
:107B6000911107C09091C00095FFFCCF8093C60093
:107B700020C091E099838A838031D9F400E010E03D
:107B800062E0C701B0D144D1882399F081E49FE13C
:107B9000019749F000000000000000000000000014
:107BA0000000A895F5CF0F5F1F4F043FF1E01F07BE
:107BB00039F7A0960FB6F894DEBF0FBECDBFDF91A8
:107BC000CF911F910F91FF90EF900895CF93C1E057
:107BD00080912B01811108C08091C00087FF04C0F3
:107BE000A8958091C60040C080912A01882321F089
:107BF000A895C0932B010FC0A9D1813049F7F8CFC8
:107C00006AE271E08AE091E02AD180912A01823013
:107C100038F410922A0180912A01882389F30DC03B
:107C200090910A0120910101921799F3909301011B
:107C3000815080932A01C093000190912A019923D9
:107C400009F4C6CF20910001E22FF0E0E65FFE4F7D
:107C500080812F5F20930001915090932A01911110
:107C600003C091E090930001CF91089588E1809343
:107C7000600088E080936000FFCFA8DF803209F0C9
:107C8000F5DF84E154CFCF93C82FA0DFC150E9F7CF
:107C9000CF91F3CFE0E6F0E098E190838083089500
:107CA000E0E6F0E098E190839EE09083282EEE27B6
:107CB000FF270994882331F0289A85E38A95F1F704
:107CC000000008958FE193E00197F1F700C00000F4
:107CD00028980895882311F02A9A08952A980895DB
:107CE0000F931F93CF93DF93EC0180E0F3DF8BE2E0
:107CF0006ED18E010D5F1F4F899169D1C017D107D9
:107D0000D9F781E0DF91CF911F910F91E3CFEF92EF
:107D1000FF920F931F93CF93DF93EC0180E0CADFB4
:107D200080E0D8DF81EE53D181E0D4DF80E0D2DF84
:107D300080E34DD17E0183E0E80EF11C8E01F80155
:107D400081918F0144D10E151F05C9F781E0C2DF73
:107D5000F5E3FA95F1F7000080E0BCDF8AE237D165
:107D6000899135D1EC16FD06D9F781E0DF91CF91ED
:107D70001F910F91FF90EF90ADCFCF9380E0AADFDE
:107D80008FEF25D1C82F81E0A5DF8C2FCF910895EB
:107D9000CF9380E09FDF80E61AD180E018D1C82F12
:107DA00081E098DF8FEF8C0F803238F080E092DF37
:107DB00082EE0DD181E08EDFC0E08C2FCF9108954F
:107DC000CF93DF93C82FD62F80E084DF8C2F8F7165
:107DD0008062FDD08D2FFBD081E0DF91CF917ACFF3
:107DE00060E787E0EDCF80910201882381F06FE7A3
:107DF00080E0E6DF62E082E0E3DF8FE891E0019778
:107E0000F1F700C0000081E055DF109202010895F3
:107E10000F931F93CF93B1DFB0DFC82FC07200E183
:107E200017E2CC2359F080FD09C060E687E0C8DF87
:107E3000DADF81E0CC2379F080E00DC084FDF5CF5E
:107E40000150110991F399DFC82FC07295E39A95FB
:107E5000F1F70000E6CFCF911F910F910895CF92D7
:107E6000DF92EF92FF920F931F93CF937C018B01D0
:107E700060E487E0A5DF8CDFF801808380E02ADF03
:107E800081E6A5D0C0E0F8018081C81748F46701F9
:107E9000CC0ED11C80E09BD0F6018083CF5FF3CF66
:107EA00081E0CF911F910F91FF90EF90DF90CF90E5
:107EB00011CF809102018130A9F06EE780E080DF70
:107EC00061E082E07DDF80E005DF81EE80D081E04F
:107ED00001DF8FE891E00197F1F700C0000081E039
:107EE0008093020108950F931F93CF93DF93EC01CA
:107EF000162F80E0DFDEDDDF80E0ECDE80EA67D099
:107F0000CE01810F911D8C01C017D10719F0899105
:107F10005ED0FACF81E0DEDE81E0DF91CF911F916C
:107F20000F91C8CECF93C82F80E0D4DE8C2F8F71F5
:107F30004ED080E04CD0C82F81E0CCDE8C2FCF918A
:107F4000089587E1EFDF80958170089516DF86FF41
:107F5000F8CF81E008950F931F93CF93DF938C01A7
:107F6000EB0184B1856084B980E0A4DE81E0B2DEFB
:107F70008FE19EE40197F1F700C0000061E083E02B
:107F80001FDF83E0CFDF8130E1F4C801C0DECE0126
:107F9000A7DE62E085E014DF63E08CE111DF64E0DE
:107FA0008DE10EDF66E086E00BDF63E081E008DF55
:107FB0006FE784E005DF60E787E002DF14DF80E041
:107FC00001C081E0DF91CF911F910F9108958EBD87
:107FD0000DB407FEFDCF8EB5089584B18E6284B9CD
:0C7FE000249880E58CBD81E08DBD0895E3
:0A7FEC0001FF024C4D314D545200CC
:027FFE0000057C
:040000030000790080
:00000001FF
