:10790000F89411248FED98E09EBF8DBFCDB7DEB700
:1079100084B714BE83FF18C04091EC085091ED0865
:107920006091EE087091EF084F3E5E4B6D4A7E4DC0
:1079300059F41092EC081092ED081092EE08109293
:10794000EF088091EB0865D28093EB088FEE9EEBF9
:10795000ADEABEED8093EC089093ED08A093EE089D
:10796000B093EF0811E0A0E0B1E0E6E2FEE702C06C
:1079700005900D92A230B107D9F711E0A2E0B1E075
:1079800001C01D92A634B107E1F78AB183608AB9BC
:107990008BB18C7F8BB91092C50087E08093C400B7
:1079A00086E08093C20088E18093C10009D0D4D1E1
:1079B0009DD1FDCF8EBD0DB407FEFDCF8EB50895D0
:1079C00084B18E6284B9249880E58CBD81E08DBD40
:1079D0000895882331F0289A85E38A95F1F700000D
:1079E00008958FE193E00197F1F700C00000289817
:1079F0000895882311F02A9A08952A9808950F93DC
:107A00001F93CF93DF93EC0180E0F3DF8BE2D2DFB3
:107A10008E010D5F1F4F8991CDDFC017D107D9F7B8
:107A200081E0DF91CF911F910F91E3CFEF92FF9211
:107A30000F931F93CF93DF93EC0180E0CADF80E0C8
:107A4000D8DF81EEB7DF81E0D4DF80E0D2DF80E3F2
:107A5000B1DF7E0183E0E80EF11C8E01F801819117
:107A60008F01A8DF0E151F05C9F781E0C2DFF5E31E
:107A7000FA95F1F7000080E0BCDF8AE29BDF899194
:107A800099DFEC16FD06D9F781E0DF91CF911F91C8
:107A90000F91FF90EF90ADCFCF9380E0AADF8FEFF3
:107AA00089DFC82F81E0A5DF8C2FCF910895CF9378
:107AB00080E09FDF80E67EDF80E07CDFC82F81E012
:107AC00098DF8FEF8C0F803238F080E092DF82EE0B
:107AD00071DF81E08EDFC0E08C2FCF910895CF93CE
:107AE000DF93C82FD62F80E084DF8C2F8F718062C8
:107AF00061DF8D2F5FDF81E0DF91CF917ACF60E78B
:107B000087E0EDCF80910101882381F06FE780E06D
:107B1000E6DF62E082E0E3DF8FE891E00197F1F7D2
:107B200000C0000081E055DF1092010108950F931D
:107B30001F93CF93B1DFB0DFC82FC07200E117E20F
:107B4000CC2359F080FD09C060E687E0C8DFDADFAA
:107B500081E0CC2379F080E00DC084FDF5CF0150A9
:107B6000110991F399DFC82FC07295E39A95F1F747
:107B70000000E6CFCF911F910F910895CF92DF9231
:107B8000EF92FF920F931F93CF937C018B0160E4E0
:107B900087E0A5DF8CDFF801808380E02ADF81E6C3
:107BA00009DFC0E0F8018081C81748F46701CC0EF6
:107BB000D11C80E0FFDEF6018083CF5FF3CF81E050
:107BC000CF911F910F91FF90EF90DF90CF9011CF49
:107BD000809101018130A9F06EE780E080DF61E0F3
:107BE00082E07DDF80E005DF81EEE4DE81E001DF21
:107BF0008FE891E00197F1F700C0000081E08093E9
:107C0000010108950F931F93CF93DF93EC01162F7B
:107C100080E0DFDEDDDF80E0ECDE80EACBDECE017F
:107C2000810F911D8C01C017D10719F08991C2DE17
:107C3000FACF81E0DEDE81E0DF91CF911F910F91DD
:107C4000C8CECF93C82F80E0D4DE8C2F8F71B2DEE8
:107C500080E0B0DEC82F81E0CCDE8C2FCF9108957C
:107C600087E1EFDF80958170089516DF86FFF8CFFA
:107C700081E008950F931F93CF93DF938C01EB0165
:107C800084B1856084B980E0A4DE81E0B2DE8FE15A
:107C90009EE40197F1F700C0000061E083E01FDF80
:107CA00083E0CFDF8130E1F4C801C0DECE01A7DE82
:107CB00062E085E014DF63E08CE111DF64E08DE1D8
:107CC0000EDF66E086E00BDF63E081E008DF6FE750
:107CD00084E005DF60E787E002DF14DF80E001C0B9
:107CE00081E0DF91CF911F910F910895909145010F
:107CF000913059F5E09144019E0F90934401F0E0DA
:107D0000EC5DFE4F8083803111F09F3121F5609151
:107D1000440184E291E076DF0ADF882369F081E4A0
:107D20009FE10197A1F300000000000000000000A7
:107D300000000000A895F5CF81E080934401809178
:107D400024018F5F8093240108959091C00095FFD6
:107D5000FCCF8093C6000895CF93C1E08091C0000E
:107D600087FF0CC08091C00082FD08C08091C000D8
:107D700081FD04C0A8958091C60036C08091230182
:107D8000882341F0A895C09345018091230181117A
:107D900015C004C06ADF813009F7F4CF63E271E0F7
:107DA00083E091E0EBDE8091030190910201891361
:107DB00003C01092230102C080930201909123011D
:107DC000992361F220910001E22FF0E0ED5FFE4F78
:107DD00080812F5F20930001915090932301911196
:107DE00003C091E090930001CF91089588E18093C2
:107DF000600088E080936000FFCFAEDF803209F042
:107E0000F5DF84E173CFE0E6F0E098E190838083D2
:107E10000895E0E6F0E098E190839EE09083282EBC
:067E2000EE27FF27099484
:027E2600010257
:027FFE0000057C
:040000030000790080
:00000001FF
