:10790000CDB7DEB72697DEBFCDBFF89411248FED3B
:1079100098E09EBF8DBFCDB7DEB784B714BE83FF9E
:1079200018C04091EC085091ED086091EE087091FC
:10793000EF084F3E5E4B6D4A7E4D59F41092EC08B5
:107940001092ED081092EE081092EF088091EB086B
:107950008FD18093EB088FEE9EEBADEABEED809366
:10796000EC089093ED08A093EE08B093EF0811E0B7
:10797000A0E0B1E0E6ECFFE702C005900D92AA306E
:10798000B107D9F711E0AAE0B1E001C01D92AC3413
:10799000B107E1F78AB183608AB98BB18C7F8BB96B
:1079A0001092C50080E18093C40086E08093C200FD
:1079B00018E11093C10082E08093C0008091030120
:1079C00090910401A09105018C839D83AE838091E9
:1079D000060190910701A091080189839A83AB83E6
:1079E000E9D2BE016C5F7F4FCE010196A2D2109307
:1079F00060008EE08093600000E010E028E1C22E7D
:107A000038E0B32EAA24A39445E0942E51E1852EAC
:107A100063E0D62ECFD0813471F4CCD0F82E15D1BE
:107A2000E2E8FE16F9F0F1E8FF1202C085E001C0BD
:107A300083E07CD078C0823411F484E103C08534C3
:107A400019F485E008D16FC0853541F4B3D0082F13
:107A500010E0B0D0182B000F111F64C0863521F440
:107A600084E0F9D080E0E5CF843609F03DC0A2D0B3
:107A7000A1D0782E9FD0011580E7180718F4F801DF
:107A8000D7BEE89580E8E82EFF24F39493D0F70161
:107A900081937F017A947110F9CF0115F0E71F07E8
:107AA00018F0F801D7BEE895D0D007B600FCFDCF9E
:107AB000F801A0E8B1E08C9111962C91119790E01B
:107AC000922B0C01A7BEE895112432961296A115AF
:107AD00082E0B80781F7F80197BEE89507B600FC89
:107AE000FDCF87BEE8951FC0843769F463D062D0AC
:107AF000F82E60D0AAD0F80185918F0117D0FA94A2
:107B0000F110F9CF10C0853739F49FD08EE10ED037
:107B100085E90CD08FE08DCF813521F4C0926000D3
:107B2000B092600092D080E101D074CFCF93DF9308
:107B3000A89590914B01911107C09091C00095FFBD
:107B4000FCCF8093C60033C0E091010191E09E0F0D
:107B500090930101F0E0E55DFE4F8083803111F0EC
:107B60009F3128F1C0E0D0E081E197E2019749F030
:107B70000000000000000000000000000000A895C8
:107B8000F5CF609101018BE291E098D138D1219637
:107B9000811109C081E08093010180912B018F5FE9
:107BA00080932B0104C0C436D105F1F6F3CFDF91E9
:107BB000CF91089580914B01811108C08091C00040
:107BC00087FF04C0A8958091C600089580912A017E
:107BD000882349F0A89581E080934B0180912A0188
:107BE00081111CC004C09BD1813021F7F3CF6AE220
:107BF00071E08AE091E037D180912A01823030F043
:107C000090910A0120910001921303C010922A0161
:107C100005C090930001815080932A0180910B014F
:107C2000EBE0F1E09181919391E0E932F907D1F72E
:107C300090912A01915090932A01089588E18093B0
:107C4000600088E080936000FFCFB4DF803209F0ED
:107C5000F5DF84E16BCFCF93C82FACDFC150E9F7DC
:107C6000CF91F3CFE0E6F0E098E190838083089530
:107C7000E0E6F0E098E190839EE09083282EEE27E6
:107C8000FF270994019748F0000000000000000061
:107C9000000000000000A895F5CF0895882329F082
:107CA00084E190E0EFDF289A089580E991E0EADF2F
:107CB00028980895882311F02A9A08952A980895FB
:107CC0000F931F93CF93DF93EC0180E0F3DF8BE200
:107CD0006BD18E010D5F1F4F899166D1C017D107FF
:107CE000D9F781E0DF91CF911F910F91E3CF80E031
:107CF000E1DF88EA59D181E457D181E0DBCFCF932E
:107D000080E0D8DF8FEF50D1C82F81E0D3DF8C2FF8
:107D1000CF91089580E0CEDF81EE46D181E0CACFD9
:107D2000EF92FF920F931F93CF93DF93EC0180E0CC
:107D3000B5DFF0DF80E0BEDF80E336D17E0183E097
:107D4000E80EF11C8E01F80181918F012DD10E15E5
:107D50001F05C9F781E0AEDF88EC90E093DF80E09B
:107D6000A9DF8AE221D189911FD1EC16FD06D9F74E
:107D700081E0DF91CF911F910F91FF90EF909ACF0B
:107D800080E098DF82EE10D181E094CFCF9380E045
:107D900091DF80E609D180E007D1C82F81E08ADF3A
:107DA0008FEF8C0F803210F0EBDFC0E08C2FCF9183
:107DB0000895CF93DF93C82FD62F80E07BDF8C2FE1
:107DC0008F718062F1D08D2FEFD081E0DF91CF9164
:107DD00071CF60E787E0EDCF80910201882371F0D9
:107DE0006FE780E0E6DF62E082E0E3DFF2DF8CE273
:107DF00091E048DF81E052DF1092020108950F9375
:107E00001F93CF937CDF7BDFC82FC07200E117E2A6
:107E1000CC2359F080FD09C060E687E0CADFDCDFD3
:107E200081E0CC2371F080E00CC084FDF5CF0150DF
:107E3000110991F384E190E025DF61DFC82FC07262
:107E4000E7CFCF911F910F9108958091020181306A
:107E500049F06EE780E0ADDF61E082E0AADF81E01B
:107E6000809302010895CF92DF92EF92FF920F93D9
:107E70001F93CF937C018B013ADF60E487E099DFA9
:107E800085DFF801808380E015DF81E68DD0C0E0DA
:107E9000F8018081C81748F46701CC0ED11C80E03E
:107EA00083D0F6018083CF5FF3CF81E0CF911F9124
:107EB0000F91FF90EF90DF90CF90FCCE0F931F9328
:107EC000CF93DF93EC01162FC0DF5ADF23DF60E290
:107ED00087E06FDF80E0EEDE80EA66D0CE01810FC2
:107EE000911D8C01C017D10719F089915DD0FACF8F
:107EF00081E0E0DE81E0DF91CF911F910F91CECE46
:107F0000CF93C82F80E0D6DE8C2F8F714DD080E0CC
:107F10004BD0C82F81E0CEDE8C2FCF91089587E122
:107F2000EFDF809581700895EADE86FFF8CF81E06B
:107F300008950F931F93CF93DF938C01EB0184B1CE
:107F4000856084B980E0AADE81E0B4DE80E197E25A
:107F500099DEE0DE15DF61E083E02BDF83E0D0DF38
:107F60008130E1F4C801DCDECE01AADE62E385E007
:107F700020DF63E08CE11DDF67E08DE11ADF66E062
:107F800086E017DF63E081E014DF6FE784E011DF54
:107F900060E787E00EDF20DF80E001C081E0DF9155
:107FA000CF911F910F9108958EBD0DB407FEFDCFA7
:107FB0008EB5089584B18E6284B9249880E58CBD15
:067FC00081E08DBD089573
:0A7FC600FF01024C4D314D545200F2
:027FFE0000057C
:040000030000790080
:00000001FF
